:020000040800F2
:10000000E80D0020C9000008353900080132000859
:1000100000000000000000000000000000000000E0
:100020000000000000000000000000008D3A000801
:1000300000000000000000003D3A00088F3A000870
:10004000DB00000800000000DB000008DB00000807
:10005000DB000008150C0008DB0000081F0C00087E
:1000600000000000910B0008A90B0008B90B000864
:10007000E9080008353B0008DB000008000000002C
:10008000DB0000080000000000000000DB000008AA
:1000900000000000253B0008DB000008DB00000832
:1000A00000000000DB00000800000000DB0000088A
:1000B0000448854600F006FC00480047455100080A
:1000C000C046C046E80D0020044880470448004769
:1000D000FEE7FEE7FEE7FEE7FEE7FEE7213B00085E
:1000E000B100000830B50B46014600202022012453
:1000F00009E00D46D5409D4205D31D469540491B5C
:100100002546954040191546521E002DF1DC30BDA4
:1001100070B500242546002801DA01244042002958
:1001200001DA01254942FFF7DDFFAC4200D0404231
:10013000002C00D0494270BDF0B51FB40646002027
:1001400082B005464024019100901BE001992246AF
:100150000F46304600F020F8049A059B801A99411A
:1001600010D310461946224600F0B4FA361A8F41D1
:100170000197224601200021009F00F0ABFA3818B9
:100180004D4100902046641E0028DFDC019B009852
:100190002946324607B0F0BD10B5202A04DB0846D8
:1001A000203AD040002110BD0B46D340D04020243F
:1001B000A21A91400843194610BDD2B201E0027064
:1001C000401C491EFBD270470022F6E710B51346CB
:1001D0000A4604461946FFF7F0FF204610BDF8B561
:1001E00002464A40D40F42004B0052085B089A4234
:1001F00002D20246084611464A0023D0C30D4A00E7
:10020000DDB2120EAD1A202D35DA49020126490A57
:10021000F6058A19002C00D0524220214F1B1146AE
:10022000B9402A411018C20D9A4221D0002C17D093
:10023000012D08DCDA05801AD20F8019D207DBB253
:1002400000F073FAF8BDDA05801A012340001B069E
:10025000C01880185A428018CA0F1043490007E09E
:100260004908C2071143DA05801A8019400880182E
:1002700000F053FAF8BD61000122511A001BF7E7A4
:100280000122D2075140AAE70122D2075040A6E737
:10029000024670B54A40D30FDB0740002DD04A001C
:1002A0002AD0010E140E000212020919400A520A45
:1002B0008418E50104465443000A120A2E045043F0
:1002C000A4194219200CC543AA18120C0125AD032C
:1002D000521C521912047F39240400D0521C1043BE
:1002E00001D44000491EC2B20C06C0092018401CAF
:1002F0004008802A02D003E0002070BD4008400082
:10030000002900DA0020184370BD0000F0B5074650
:100310000846584087B0C00F049048000E46590068
:1003200040084908BC1A884105D2384631461E4665
:1003300017460B4602465800400810434DD0300D7A
:10034000039040055900400D490D0590401A029058
:10035000402873DA18030121000B090508430190B6
:1003600004980092002806D01146019A49420020C4
:10037000904100910190029840210A1A0199009839
:1003800000F0A8F905460C466B4607CB00F0B2F921
:10039000C0197141039A0E0D0023D71756401A4613
:1003A0007A40164344D0049A002A2DD0029A012A9A
:1003B000039A15DC1205C01A914101263605001C6E
:1003C0007141D20F059ED2070093019202962A46F0
:1003D000234600F0F0F907B0F0BD38463146FAE7A1
:1003E0001605234A0F46B218C01AB7410121090564
:1003F000001C4F4100187F41114618187941E20F47
:1004000010436D19644113E0E2076D081543640859
:10041000C2071443039A01261205C01A91413605FA
:10042000001C7141CE07400830434908C0185141B3
:100430002A46234600F0B2F9CDE7FFE704980122EF
:100440004000C117121A00238B4104983146C4178B
:10045000381AA141EEE730B40124E407634030BC10
:1004600054E730B40124E407614030BC4EE700009B
:100470000000E0FFF0B51FB488B00B990998002484
:1004800048400999C00F490049080991C0070B99D4
:100490000090490049080B9109990898A64608431D
:1004A0001CD00B990A98084318D0099801244000E1
:1004B000420D4800410D099824050003000B20431C
:1004C00009900B980003000B20430B9050181C4917
:1004D0004018002201901446104605E00020014615
:1004E0000DB0F0BD032801DA034600E003239C466B
:1004F000C11A0AAE0AE05F0008ADED5B4F00F75B82
:100500007D430027AA187C41491C5B1E6145F2DD32
:10051000410004AB5A522104120C0A43240C401C23
:100520000828DFDB01980290009970460191009045
:10053000059B049A0799069800F03DF9D0E7000062
:100540000DFCFFFFF0B50C465C4085B0E40FE407FE
:1005500003944C000026640859009446490802465A
:100560000296224321D062460A431ED06200570DF4
:100570004A000E032303550D012402462C4924058D
:10058000781B1B0B360B4018234326436146009013
:100590001C46501AB44103D30098401C009002E05E
:1005A000921800985B41002803DA0020014605B04C
:1005B000F0BD0020012109050746864611E064468A
:1005C0001D46141BB54106D36546521BB341744604
:1005D00007430C43A646CD07400849082843921814
:1005E0005B4105460D43EAD11046184313D06046DF
:1005F000194650407140084306D06046101AB34176
:1006000006D20122002306E000220123DB0702E0DC
:100610000122D2435310009874460105381C6141F1
:10062000029C039D0019694100F0B8F8BFE7000083
:10063000FD03000010B500229623114600F075F866
:1006400010BD00000EB505490291002100910A4637
:100650000B46019100F0AFF803B000BD3304000079
:10066000C20FD207400040080BD0C10D0723DB01A9
:10067000C91840020905400A1143C2084007114346
:100680007047002001467047CB0FDB07490010B5CB
:10069000490802460A4307D00A0D07240903E4016A
:1006A000090B121B002A01DC002010BDC900440FF9
:1006B0000C43C100E018D205801800F02EF810BDE0
:1006C0000122D207002800DB101A002900DB511A92
:1006D0008842704710B5202A04DB0146203A914039
:1006E000002010BD914020239C1A0346E34019438B
:1006F000904010BD10B5202A06DBCB170846203AE3
:100700001041C1170B4306E00B461341D040202493
:10071000A21A91400843194610BD002904DA401C72
:10072000490001D140084000704770B40024050C16
:1007300005D11024000402D1002921D01124050E76
:1007400001D100020834050F01D10001241D850FDD
:1007500001D18000A41C002801DB4000641C00299A
:1007600008D020252E1B0D46F540A14000D00121C8
:100770002943084301061B1B000ADB1D02D500208C
:1007800070BC7047DB05181880180029F8DA401C87
:100790004900F5D170BC40084000704710B5002BEF
:1007A00008DA0024401C614192185B411A4301D1D0
:1007B0004008400010BDF0B51FB482B005460C00E3
:1007C00003D0084603F016FE02E003F013FE2030CB
:1007D0000246009021462846FFF77CFF049B059ABD
:1007E00004460F4618431143084314D018461043DB
:1007F0001BD0009840210A1A18460599FFF7CCFC37
:1008000005460E46009A05990498FFF763FF0843D2
:1008100005D0012004E02046394607B0F0BD002095
:10082000C11705430E432C43374300990E986305C7
:10083000401A7905E40A00220C43FD0A0A3002D569
:1008400000200146E9E70105101969410C9C0D9D46
:1008500000196941FFF7A2FFDFE700004A00090322
:100860000123090B1B0519430A4B10B5520D9A427F
:1008700002DA0020014610BD064B34339A4203DCF5
:100880009A1AFFF789FC10BD034BD218FFF722FF1D
:1008900010BD0000FF030000CDFBFFFF10B50029D5
:1008A00004DB0124E40740428C412146002B04DB99
:1008B0001C460123DB075242A341994200D19042DA
:1008C00010BD0000064C0125064E05E0E36807CC8C
:1008D0002B430C3C98471034B442F7D3FFF7ECFBA2
:1008E000F87C0008187D000810B5024800F0BBFB3A
:1008F00010BD00001001002010B50146406A826B57
:1009000050231A420AD1816B0122520211438163A2
:100910000168CA681205920F05D020E0006B026BD7
:100920000846904710BD827E002A18D10A68120737
:1009300015D58A6853070122002B09DB4B680C246C
:10094000A3434B60816B130299431143816306E01B
:10095000816B202319438163C16B1143C16300F094
:100960007FFB10BD10B5406A816B4022114381634B
:10097000C16B04221143C16300F074FB10BD10B5BC
:10098000406A00F06EFB10BDF8B5044600200090F0
:10099000206881688907890F012905D10168C90785
:1009A00031D1C16809042ED48168184A102611403B
:1009B000012500291AD1816829438160154814490D
:1009C0000068FFF78FFB00E0401E00900028FBD17D
:1009D00000F04CFF074611E000F048FFC01B022862
:1009E0000CD920680068C043C00707D0A06B304313
:1009F000A063E06B2843E0630120F8BD2068006835
:100A0000C043C007E8D10020F8BD000017000080F7
:100A100040420F002400002010B5094C204600F091
:100A20003BF855280AD05521204600F077F8FF20E2
:100A300000F032F8552801D0012010BD002010BD73
:100A4000FF0F000070B5FFF7E7FF002801D001207D
:100A500070BD064D0024A000042100F009F8641CBC
:100A600001C5E4B20A2CF6D3002070BD300000208E
:100A7000F8B50D460146002004464E1908E007026D
:100A8000301B401E80B200F007F8C019641CE4B2AD
:100A9000AC42F4D3F8BD00001FB5002269460A73CA
:100AA0006423022203A96C460EC413460246A02109
:100AB000034801F041F86946087B04B010BD00000E
:100AC0009401002070B5FFF7A7FF002801D0012096
:100AD00070BD074D0024A0000422296800F00AF828
:100AE000641CE4B22D1D0A2CF5D3002070BD00005B
:100AF00030000020F8B516460D460746002409E0F0
:100B0000E1002846C840C1B2381980B200F006F8AA
:100B1000641CE4B2B442F3D3F8BD000003B583B063
:100B20000122642304A90192029300910246022348
:100B3000A021044801F0AAF8052000F02DFD05B021
:100B400000BD00009401002010B50C4804F030FEF8
:100B50000A4804F0B3FA0A4800F0BEFC0948084904
:100B6000016348625022084900F0F4FB0021074865
:100B700002F01CF9FFF766FF10BD0000F40400202E
:100B800050010020100100207000002048020020C9
:100B900010B5034803F042FB024800F04FFC10BDC3
:100BA000100100205001002010B5024800F046FC62
:100BB00010BD0000AC03002010B5024800F03EFC60
:100BC00010BD00006803002010B504460068054908
:100BD00040181421FFF786FA800020640248E06381
:100BE00010BD0000F8FFFDBF0000024030B5056CED
:100BF0000124AC40C56B6C60046863604368102BD3
:100C0000036803D099600068C26030BD9A600068D4
:100C1000C16030BD10B5012000F03EFD10BD10B523
:100C2000102000F039FD202000F036FD10BD72B616
:100C3000FEE70000F3B5BDB00546402128A8FFF748
:100C4000C3FA202120A8FFF7BFFABF4F0026B40047
:100C50002859FFF705FD2B9B2A9AFFF757FB2B918D
:100C60002A902859022104F0FFFCFFF7F9FC2D9B84
:100C70002C9AFFF74BFB2D912C902859032104F05F
:100C8000F3FCFFF7EDFC2F9B2E9AFFF73FFB2F9114
:100C90002E902859042104F0E7FCFFF7E1FC319B7A
:100CA000309AFFF733FB319130902859052104F039
:100CB000DBFCFFF7D5FC339B329AFFF727FB339120
:100CC00032902859062104F0CFFCFFF7C9FC359B70
:100CD000349AFFF71BFB3591349038593890FFF761
:100CE000BFFC219B209AFFF711FB219120902859EE
:100CF0003899FFF7CDFAFFF7B3FC239B229AFFF751
:100D000005FB239122902859022104F0ADFC3959AA
:100D1000FFF7BEFAFFF7A4FC259B249AFFF7F6FA2B
:100D2000259124902859032104F09EFC3959FFF79E
:100D3000AFFAFFF795FC279B269AFFF7E7FA761C98
:100D400027912690142E82DB002080496F4629913E
:100D50002890002243010146DB19CD0028AC65191B
:100D6000D60030CD9E1930C6491C521C042AF4DB33
:100D7000401C0428EDDB0024610168460F18E500E3
:100D80007919399403C9FFF77FFC2646389017E09C
:100D900071016846081841193A9003C9FFF774FCBD
:100DA00004F084F93899FFF78BFC08D23A9841197E
:100DB00003C9FFF769FC04F079F939963890761C7D
:100DC000042EE5DB399826464101684608183A901A
:100DD00013E0F200B918389203C9FFF755FC389AAE
:100DE0003A998A180ACA389ABA180AC2FFF738FC20
:100DF0003A9B389A9A1803C2761C042EE9DB20AE7F
:100E0000711903C9FFF740FC39997319CA00389268
:100E1000B21806CA06C3FFF723FC389AB21803C2F9
:100E2000601C38E079190CC93899684649010818DE
:100E300041193C9003C9FFF785FBFFF725FC2646C7
:100E4000FFF70EFC3A91399010E0F200BB183B928C
:100E50000CCBFFF70FFB3C9B3B9A9B180CCBFFF78F
:100E600000FB3C9B3B9A9A1803C2761C3A9939982E
:100E7000042EEADB20AE73190CCBFFF7FBFA389A8D
:100E8000D200B31839920CCBFFF7EBFA399AB218AB
:100E900003C23898401C38900428C3DB641C032C20
:100EA00000DA69E71F9B1E9A27992698FFF74AFBED
:100EB0000224279126900027651C684661010E18C0
:100EC00014E0EA00B11820AB9B1803C90CCBFFF764
:100ED000D1FA389039913846FFF7C2FB399B389ADE
:100EE000FFF714FAFFF7D0FB07466D1C042DE8DB73
:100EF0003846FFF7B5FBE50020AF7B190CCBFFF7B9
:100F0000B0FA73190CCBFFF71DFB7A1903C2641EEC
:100F1000D1D521992098FFF7B7FB3E990860239916
:100F20002298FFF7B1FB3E99486025992498FFF776
:100F3000ABFB3E99886027992698FFF7A5FB3E9961
:100F4000C8603FB0F0BD00001873000800003440D6
:100F5000F8B50025044620340095227D012A39D0B9
:100F60000122227503689E68760767D4384F4E6861
:100F7000BE424DD09E6A0F78BA4016439E6201234E
:100F8000C26A1B079A421FD0012A1DD0022A1BD019
:100F9000032A19D0042A17D0052A15D0062A13D0FF
:100FA000072A11D002688B6856697607760FB3421C
:100FB0000AD05369DB08DB005361006842690B7A91
:100FC0005B075B0F1A4342610A68102A04D0112A9A
:100FD00002D038E00220F8BD1E488368102A07D0EE
:100FE00001229205134383600868102803D02AE089
:100FF0000122D205F6E7194817490068FFF772F891
:101000000A21484300E0401E00900028FBD11AE06E
:10101000986A0E78B240904398620968102901D00E
:10102000112910D10B488268102904D001218905AB
:101030008A43826007E00121C905F9E7816B20221C
:10104000114381630125002020752846F8BD00006A
:10105000011000000027014040420F002400002042
:1010600070477047704770B50446006801684907CB
:1010700002D54168490705D40168090730D54168A0
:1010800009072DD5A16BC90604D4A16B0122520218
:101090001143A163C1680C250905890F00291AD1E4
:1010A000A17E002917D10168090714D581684A0774
:1010B0000121002A08DB4268AA434260A06B0A02B1
:1010C00090430843A06306E0A06B20221043A06376
:1010D000E06B0843E0632046FFF7C2FF206805602D
:1010E0002068016809060DD5406800060AD5A06B86
:1010F000012109040843A063204600F0D9F82168C3
:101100008020086020680168C90613D54168C906B7
:1011100010D5A16A1025012902D0C168C90707D0DE
:10112000E16B02221143E16305602046FFF79AFF5D
:101130002068056070BD0000F8B500260446002850
:1011400005D0A06B25462035002802D007E00120FD
:10115000F8BD0020E0632875204600F0ABF8A06BD6
:101160001022C006002870DB2068816849076CD413
:10117000A16B1301994302231943A1638168890775
:10118000890F012905D10168C9070FD1C168090478
:101190000CD4C16818239943A3681943C16020681F
:1011A0000169636889008908194301612068C16881
:1011B0003D4B1940C160207E617E8003C903084316
:1011C000A17E4B031843A36A012B02D001231B030A
:1011D00000E000231843E36818432369022B09D079
:1011E000002318432B79E57E5B0018430123012D72
:1011F00002D00AE00423F4E7002927D0A16B2025C0
:101200002943A163E16B1943E163E1690D46FF3DA9
:10121000C23D02D0256A294308432168CD680543B1
:10122000CD600125E16A2D07A94213D0012911D013
:1012300002290FD003290DD004290BD0052909D08C
:10124000062907D0072905D010E028E0012109046C
:101250000843DAE721684D69ED08ED004D6121682A
:101260004D69A78D7F077F0F3D434D612168C96898
:101270000E4D2940814207D10020E063A06B800819
:101280008000401CA06308E0A06B0221884310434B
:10129000A063E06B1843E06301263046F8BDA06B05
:1012A0001043A063F8E700001902FEFFE7FF3F8349
:1012B0007047000070B586B0054614216846FEF7F9
:1012C00083FF20492868884239D11F498A6940151F
:1012D00002438A618A69024005924A690002024318
:1012E0004A6149690026014005910B2000900320C6
:1012F0000190092069460296C00600F0D9F913480A
:10130000134C41C48020266060604000A0608000D3
:10131000E06020202061C00160610D48083C00F0C1
:10132000DBF8002801D0FFF782FC2C630022114675
:101330000C20656200F0DCFD0C2000F0CDFD06B055
:1013400070BD00000024014000100240080002406F
:1013500050010020F7B5044600680025806840076A
:101360003DD426462036307D01280AD00127377526
:10137000607E012807D02046FFF706FB050002D05B
:101380002EE00220FEBDA06B16490840FF2101316E
:101390000843A0630020E0633075216B1248886227
:1013A000216B1248C862216B1148086321681C2018
:1013B0000860206841681022114341602068C168BC
:1013C0003943C1602168206B4031029B019A00F0D3
:1013D000ADF82068816804221143816000E0022595
:1013E0002846FEBDFEF1FFFFF90800087F0900084E
:1013F0006509000870B50024014620314A78022AA8
:1014000003D004218163012416E0026813680E25CD
:10141000AB431360026813685B085B001360012232
:10142000056C1346AB40C56B6B604A7000220A70B6
:10143000416B002900D08847204670BDF0B4C16BD5
:101440000D6801680C680422066C1346B3402B42F9
:101450000DD063070BD50B689B0602D40B68934332
:101460000B60016C8A40C16B4A60C16A19E00227B7
:10147000B74002462F4001232032002F15D0A70786
:1014800013D50C68A40604D40C680A25AC430C6080
:101490005370036C02219940C36B59600021117095
:1014A000816A002916D0F0BC08470827B7402F42B0
:1014B00010D024070ED50C680E25AC430C60046CCC
:1014C0001946A140C46B61608363537000211170A1
:1014D000016BE6E7F0BC704770B5040021D0022133
:1014E0002046203005464170226811680E48A368E6
:1014F0000140606826691843E36833431843636911
:101500001843A3691843E369184308431060204651
:10151000FFF75AFB0021A16301206870297008467B
:1015200070BD012070BD00000FC0FFFFF8B504467C
:101530008C46203001780025012909D0012606704B
:1015400041780027012905D0077002252846F8BDFB
:101550000220F8BD02214170A76320680168490894
:101560004900016061462046FFF740FBE06A002821
:101570002068016802D00E22114306E00A221143BE
:1015800001602068016804229143016020680168BD
:1015900031430160DAE7000070B5044600F066F9F7
:1015A0000546601C02D004480078241800F05EF95B
:1015B000401BA042FAD370BD18000020F8B5AF263A
:1015C000324D334CB60001281BD00927FF061028E6
:1015D00037D0202834D12021384600F03BF90028AC
:1015E0004CD02021384600F035F9012828D100F0F0
:1015F0003DF92968401AB042206845D9FF210131E0
:101600001CE0244F0121384600F024F900280ED0B8
:101610000121384600F01EF9012811D100F026F909
:101620002968401AB042206807D9042106E000F07A
:101630001DF928600121206800E002210843206094
:10164000F8BD1021384600F005F900280ED0102111
:10165000384600F0FFF80128F2D100F007F92968B8
:10166000401AB042206807D92021E7E700F0FEF8D1
:10167000286008212068E1E71021DFE700F0F6F894
:10168000286040212068D9E78021D7E70C0000209E
:10169000580000200014004810B504494A6902426D
:1016A00002D04861FFF78AFF10BD0000000401402E
:1016B000F8B5002303240125BAE02E469E40B44627
:1016C00032407CD00E79B607B60F012E01D0022E23
:1016D00017D186682746B6465E00B7400096764624
:1016E000BE43B646CF68009EB74076463743876014
:1016F00046686746BE430F79FF06FF0F9F4037439A
:1017000047600E79F643B6070ED0C6682746B44642
:101710005E00B646B7406646BE43B4468F6876461E
:10172000B74066463743C7600E79B607B60F022E3C
:1017300014D1DE08B60036180096366A5F07B44644
:10174000FE0E0F27B646B7406646BE43B4460F6945
:101750007646B74066463743009E3762066827469E
:10176000B4465E00B646B7406646BE430F79B446FF
:10177000BF07BF0F7646B7406646374307604E68DF
:10178000B603B60F53D02D4FBE692E43BE61BE695E
:101790009F08F607F60F2A4EBF00BE190096B668DE
:1017A0000F27B4469E07360FB646B7406646BE437F
:1017B0000927FF06B446B84202D1002710E036E000
:1017C000204FB84201D101270AE01F4FB84201D192
:1017D000022705E01D4FB84201D1032700E005278D
:1017E0007646B74066463743009EB760184E366867
:1017F0004F689643FF0300D51643154F3E607E6841
:101800004F689643BF0300D51643114F7E60BE68F4
:101810004F689643FF0200D516430D4FBE60FE6829
:101820004F689643BF0200D51643094AD6605B1C39
:101830000A681646DE4000D03FE7F8BD00100240BF
:10184000000001400004004800080048000C004867
:10185000000401400069084000D001207047002AC0
:1018600001D0816170478162704700000148806843
:10187000704700001800002010B5040003D0A06FCE
:10188000002802D007E0012010BD0021742001557E
:10189000204601F085FC2420A067206801684908E3
:1018A00049000160204602F0C1FB0128ECD0606ACB
:1018B000002802D0204602F021FB20684168012266
:1018C000D2029143416020688168082211438160FF
:1018D00020680168012211430160204602F074FB78
:1018E00010BD70B5024640325378202B1CD11378BE
:1018F000012B19D001231370242454700468256827
:101900009D432560046825681E03B543256004686F
:1019100025680D4325600068016819430160202097
:1019200050700020107070BD022070BD70B502466E
:1019300040325378202B1BD11378012B18D001246F
:1019400014702423537003681D68A5431D60056847
:101950002B680F263602B343090219432960006839
:10196000016821430160202050700020107070BD7C
:10197000022070BD70B5040006D025464035687859
:101980000026002802D005E0012070BD2E70204600
:1019900000F022FA24206870206801684908490094
:1019A00001600F2160680906884321680861216889
:1019B0008A680120C00382438A60E1680129A16826
:1019C00008D021229202114322689160E168022925
:1019D00002D005E00143F7E701212268C902516006
:1019E00021684A680F4B1A434A602168CA688243DB
:1019F000CA60616920690843A16909020843216836
:101A0000C860216AE06908432168086020680168AD
:101A10000122114301606664202068702663AE7065
:101A2000002070BD00800002FFB505460446403529
:101A3000687881B0202878D12878012875D00120D5
:101A40002870FFF713FF0746012200901923D103E6
:101A5000204601F09FFC00283CD121206870102016
:101A6000A8700026666403986062049860856663C7
:101A7000618D2F48FF2903D9FF22228500903BE08A
:101A8000618D218500903DE02046029901F06EFCB9
:101A900016E001F0CCFC00281CD1606A21680078B7
:101AA0008862606A401C6062608D401E6085208D87
:101AB000401E80B22085618D002901D000280CD005
:101AC000608D0A9900283A462046E2D101F089FC4F
:101AD00000281CD0012005B0F0BD00970022802115
:101AE00020460A9B01F056FC0028F3D1608DFF28A8
:101AF00005D9FF222285009601231B06C4E7608DCD
:101B000020850096208D0123C2B25B06BCE72168C8
:101B10002020C86121684A68064B1A404A606870F4
:101B2000AE702E700020D6E7FFE70220D3E700005A
:101B30000020008000E800FEFFB505460446403561
:101B4000687883B0202875D10C98002814D00D989F
:101B5000002811D0287801286CD001202870FFF7C8
:101B600085FE0746012200901923D103204601F08B
:101B700011FC002874D103E00120400260646FE092
:101B8000222068704020A870002666640C9860626D
:101B90000D98608566630E980090019704A90EC9A0
:101BA000204601F083FB002801D02E7058E0618DA3
:101BB0003448FF2905D9FF22228501231B06009006
:101BC00006E0618D21850090208D0123C2B25B0665
:101BD0002046049901F0CAFB009700220421204608
:101BE0000E9B01F0D7FB00283AD12068406A616A59
:101BF0000870606A401C6062208D401E81B22185A1
:101C0000608D401E6085608D00281FD000291DD189
:101C100000970022802120460E9B01F0BBFB00288C
:101C20001ED1608DFF2806D9FF22228501231B06C5
:101C3000009607E024E0608D20850096208D01232A
:101C4000C2B25B062046049901F090FB608D00282B
:101C5000C2D13A4620460E9901F0C3FB002802D0BB
:101C6000012007B0F0BD20682021C16120684268D2
:101C7000054B1A4042606970AE702E700020F0E78C
:101C80000220EEE70024008000E800FEFFB50546D4
:101C900004464035687883B0202872D10C9800281B
:101CA00014D00D98002811D02878012869D001207F
:101CB0002870FFF7DBFD0746012200901923D103AE
:101CC000204601F067FB002871D103E001204002AB
:101CD00060646CE0212068704020A8700026666473
:101CE0000C9860620D98608566630E98009001976D
:101CF00004A90EC9204601F009FB002801D02E706E
:101D000055E0608DFF2805D9FF22228501231B069F
:101D1000009606E0608D20850096208D0123C2B2DA
:101D20005B062046049901F021FB3A4620460E99B5
:101D300001F07DFB00283AD1606A21680078886252
:101D4000606A401C6062608D401E6085208D401E70
:101D500080B22085618D00291FD000281DD10097F9
:101D60000022802120460E9B01F014FB00281ED18A
:101D7000608DFF2806D9FF22228501231B060096CD
:101D800007E024E0608D20850096208D0123C2B2FB
:101D90005B062046049901F0E9FA608D0028C4D161
:101DA0003A4620460E9901F01CFB002802D0012083
:101DB00007B0F0BD20682021C16120684268054B52
:101DC0001A4042606970AE702E700020F0E7022069
:101DD000EEE7000000E800FE10B586B004461421CE
:101DE0006846FEF7F1F913492068884220D1124C69
:101DF0006169012040040143616161690140032080
:101E000005914002009012200190002002900320D2
:101E100003900420049009206946C006FFF748FC9F
:101E2000E169012040050143E161E169014005915B
:101E300006B010BD00540040001002400248816806
:101E400002788918816070471800002010B5064894
:101E50000168102211430160032000F007F800F030
:101E600027F8002010BD00000020024070B5044695
:101E70000D4D7D202978C000FEF734F901460B484E
:101E80000068FEF72FF900F035FC002809D1042C7A
:101E900007D200222146401E00F02AF800206C6084
:101EA00070BD012070BD000018000020240000203B
:101EB00008B5084881690122114381618169114097
:101EC0000091C26901040A43C261C06908400090E0
:101ED00008BD000000100240002805DBC106C90E45
:101EE00001208840014908607047000000E100E0DF
:101EF00010B502F0BBFA10BDF8B505460068354CC8
:101F0000C00352D5E0690026C00007D4E16920046F
:101F10000143E161E1690140012600912E48016819
:101F2000C90510D40168821511430160FFF79EFCBA
:101F3000074604E0FFF79AFCC01B642824D8264813
:101F40000068C005F6D5206A03273F02384020D03C
:101F50006968394081421CD0206A226AB843012155
:101F600009040A432262226A8A4322622062C0076D
:101F70000FD0FFF77BFC009008E0FFF777FC00999B
:101F8000411A1648814201D90320F8BD206A800712
:101F9000F3D5206A6968B84308432062002E04D054
:101FA000E169012000078143E1612878C00705D07D
:101FB000206BA96880088000084320632878800689
:101FC00005D5206B10218843E96808432063002071
:101FD000F8BD0000001002400070004088130000AF
:101FE000F8B50F46060059D03A4D2868C007C00F13
:101FF000B84209D228684008400038432860286861
:10200000C007C00FB84249D13068334C81070CD5A6
:10201000400704D5606807210902084360606068D2
:10202000F0218843B168084360603078C00726D04B
:10203000706801280ED0216802280ED08907002977
:102040002CDA61688908890001436160FFF70EFCA2
:1020500000900DE021688903F1E78901EFE7FFF7C0
:1020600005FC0099411A1D48814201D90320F8BDA1
:1020700060680C210840716889008842EFD12868A7
:10208000C007C00FB8420BD9286840084000384349
:1020900028602868C007C00FB84201D00120F8BDF1
:1020A0003078400706D56068072109028843F16847
:1020B0000843606000F028F86168094A0906090FC2
:1020C000515CC840074908600320FFF7CFFE00209D
:1020D000F8BD0000002002400010024088130000FC
:1020E0006873000824000020044805490068496816
:1020F000044A4905490F515CC8407047240000203C
:10210000001002407873000810B514A30FCB88B0FC
:102110006C460FC415A30FCB0FC4184A51680C208E
:102120000B4603401648042B16D0082B14D18B0203
:102130001B0F6C46E45CD26A04AB1207120F9A5C68
:10214000C90305D500231946FDF7F6FF214601E036
:1021500020460C4902F065F908B010BD02030405E1
:10216000060708090A0B0C0D0E0F101001020304DC
:1021700005060708090A0B0C0D0E0F10001002408F
:1021800000127A0000093D00FEB5040070D02078EE
:10219000DC4DC0074AD068680007800F012807D0CF
:1021A00068680007800F022809D16868C00306D557
:1021B000286880033AD560680028E7D036E0616877
:1021C000012914D001208004002901D0052914D050
:1021D0002A68012109048A432A6029688143296009
:1021E0006068002816D0FFF741FB06460EE028681D
:1021F0000121090408432860F2E7296801432960A6
:10220000F5E7FFF733FB801B64286ED8286880034E
:10221000F7D50BE0FFF72AFB064604E0FFF726FBA5
:10222000801B6428F1D828688003F7D42078012621
:10223000800700283CDA68680007800F07D06868CC
:102240000007800F022809D16868C00306D42868F7
:10225000800716D5E06801280AD112E0E06800285E
:10226000286816D030432860FFF700FB074605E0DA
:1022700043E1FFF7FBFAC01B0228C6D82868800795
:10228000F7D52868F82188432169C90008432860E8
:102290000EE0400840002860FFF7E8FA074604E037
:1022A000FFF7E4FAC01B0228AFD828688007F7D4EC
:1022B0002078000722D5E0690028686A0ED03043F4
:1022C0006862FFF7D3FA074604E0FFF7CFFAC01BB6
:1022D00002289AD8686A8007F7D50FE040084000C6
:1022E0006862FFF7C3FA074605E09DE0FFF7BEFA14
:1022F000C01B022889D8686A8007F7D42078042791
:102300004007002860DA00200190E869C00008D486
:10231000E969B8060143E961E969014001200091DA
:10232000019079480168C90511D4016882151143EB
:102330000160FFF79BFA009005E0FFF797FA00991C
:10234000401A642870D870480068C005F5D5A068A8
:1023500001280AD0002801D0052810D0286A40089A
:1023600040002862286AB84301E0286A30432862A6
:10237000A068002812D0FFF779FA00900AE0286AD6
:1023800038432862F1E7FFF771FA0099411A5F4874
:10239000814249D8286A8007F5D50DE0FFF766FA33
:1023A000009006E0FFF762FA0099411A574881420F
:1023B0003AD8286A8007F5D40198002804D0E96942
:1023C000012000078143E9612078C00635D56069A6
:1023D00001280CD0401D686B23D038436863686BBC
:1023E000400840006863FFF741FA064622E0686B48
:1023F00038436863686B30436863FFF737FA064613
:1024000004E0FFF733FA801B02285BD8686B800773
:10241000F7D5686BF8218843A169C9000843686350
:102420000BE0B8436863F4E74CE0FFF71FFA801B4A
:10243000022847D8686B8007F7D4206A00285ED04E
:1024400069680907890F022942D001263606022849
:10245000286805D0B0432860FFF708FA044633E047
:10246000B0432860FFF702FA074604E0FFF7FEF9E1
:10247000C01B022826D828688001F7D4E86AE16AE0
:10248000000900010843E862616AA06A08436968BC
:102490003D22120491430843686028683043286055
:1024A000FFF7E4F9044604E0FFF7E0F9001B022817
:1024B00008D828688001F7D521E0FFF7D7F9001B7D
:1024C000022801D90320FEBD28688001F5D416E05A
:1024D0000128F8D06868E96A01221204636A0240A0
:1024E0009A420AD10907E26A090F914205D10F21E8
:1024F00089040840A16A884201D00120FEBD002065
:10250000FEBD000000100240007000408813000073
:1025100070B5040003D0607F002802D006E00120DF
:1025200070BD00202077204600F04CF80220607734
:102530002168CA204862216853204862204601F081
:1025400089FAFF250426002824D1206881681C4AC6
:10255000114081602168886862686369104322695C
:102560001A43104388602168E068086120680169A7
:1025700022891204114301612068C16880229143BD
:10258000C16020688068800608D4204600F098F872
:10259000002803D0206845626677C0E72068016C98
:1025A00001229204914301642068016CA2691143E5
:1025B00001642068456201206077002070BD000042
:1025C000BFFF8FFF00680549884205D10448016AB2
:1025D0000122D2031143016270470000002800402D
:1025E00000100240F8B50446007F0D46012821D0B6
:1025F0000120207702206077206800278068002A69
:102600001AD0400600D4EF702878AE780004064354
:102610006878E97800020904084306432168CA2063
:102620004862216853204862204601F013FA0028CE
:1026300034D114E00220F8BD400600D4EF702878B1
:1026400001F0FDF90604687801F0F9F9000206438B
:10265000A87801F0F4F90643E8780004DDE71748AC
:102660000640206806602068816801229204914338
:1026700081602969E868084321688A681043886096
:102680002068C16880229143C1602068806880060C
:102690000CD4204600F014F8002807D02168FF2051
:1026A00048620420607727770120F8BD2168FF2069
:1026B00048620120607727770020F8BD7F7F7F0088
:1026C00070B504460068C168A0229143C160FFF75D
:1026D000CDF87D260546F60006E0FFF7C7F8401B5B
:1026E000B04201D9032070BD2068C0688006F4D5CF
:1026F000002070BD094910B5401E884201D9012053
:1027000010BD074C60610321081F01F0AFFE0020DF
:10271000A06107202061002010BD0000FFFFFF0026
:1027200000E000E07047704730B5034620331A7F61
:10273000012A26D001221A770325CA682D02AA434E
:102740008D6800242A430125AD02AA434D68006824
:102750002A430125ED02AA430D682A4301252D03D2
:10276000AA430D692A4301256D03AA434D69C9692E
:102770002A430125AD03AA430A4342641C77002083
:1027800030BD022030BD0000F0B502462032137F7C
:10279000012B1BD0012616770223537705686B683F
:1027A000AC687027BB430F681F436F600068084B1D
:1027B000984202D0074B984204D1802349689C4339
:1027C00021438160567700201077F0BD0220F0BDD4
:1027D000002C01400004004070B5040005D02546DF
:1027E0002035687F002802D006E0012070BD00205F
:1027F0002877204600F014F802206877211D206811
:1028000001F0A0F901204034A071A877E87720708A
:102810006070A070E070207160716877002070BDFA
:10282000F8B5044605683F483F4985420DD18A699D
:10283000C01402438A618969002201400091114657
:102840000D20FFF755FB0D203FE0384F10230020EF
:1028500080261A01BD421DD1CF6902252F43CF61C9
:10286000C96929400091334D3149EE602A61A86061
:102870000AC50915E9602861C80068612D48083D4E
:10288000FEF72AFE002801D0FEF7D1F965626C62DE
:10289000A56345E0284FBD4206D1C8691043C86111
:1028A000C86910400090F8BD244FBD4210D18A691C
:1028B0000120400402438A6189690022014000919D
:1028C00011461520FFF714FB1520FFF705FBF8BD97
:1028D0001B4FBD42FBD18F690125AD042F438F6192
:1028E000896929400091134D11494435EE602A61F0
:1028F0002839A8600AC509158E006E61E960286153
:1029000028460838083DFEF7E7FD002801D0FEF70D
:102910008EF90C4801683143016065626C62256282
:102920006C62F8BD002C0140001002400004004021
:1029300044000240680300200020004000440140A1
:102940000048014000000140014620314A7F012A31
:1029500001D00120704702224A770268D368012122
:102960000B43D3600068084A904202D0074A904265
:1029700004D182685207520F062A02D002680A4325
:102980000260002070470000002C0140000400405D
:10299000F8B5054604462035287F0026012817D0C3
:1029A0000120287702206877226890687727FF2324
:1029B000B8431B02984390600868502838D00EDC5A
:1029C00020284FD006DC00284CD010281ED149E02A
:1029D0000220F8BD302845D0402817D13AE06028C1
:1029E0002ED0702819D001221203801A0FD09042E5
:1029F0000CD1CB684A688968206801F065F92068C5
:102A00008168012292031143816000E001260120C8
:102A10006877002028773046F8BDCB684A68896817
:102A2000206801F051F92168886838438860EEE732
:102A3000CA684968206801F03DFA5021206806E024
:102A4000CA684968206801F046FA6021206801F0F0
:102A500046F9DCE7CA684968206801F02BFA402192
:102A60002068F4E7226801461046F0E77047704797
:102A700070B50446006801690025C943890700292B
:102A800015DBC168C943890711D4E91E0161012022
:102A90002077206880698007204602D0FFF7E7FF93
:102AA00004E000F0E7F8204600F072F9257720688E
:102AB0000169C943490717D4C168C943490713D4F9
:102AC0000421C943016102202077206880698005C4
:102AD000800F204602D0FFF7CAFF04E000F0CAF8DA
:102AE000204600F055F9257720680169C943090798
:102AF00016D4C168C943090712D40821C94301612A
:102B0000042020772068C0698007204602D0FFF7A4
:102B1000AEFF04E000F0AEF8204600F039F925776A
:102B200020680169C943C90617D4C168C943C906E9
:102B300013D41021C9430161082020772068C0699F
:102B40008005800F204602D0FFF791FF04E000F0DF
:102B500091F8204600F01CF9257720680169C943E7
:102B6000C90708D1C168C943C90704D1891E0161D9
:102B7000204600F0E7FA20680169C943090609D434
:102B8000C168C943090605D48021C94301612046B3
:102B9000FFF7C8FD20680169C943490609D4C16827
:102BA000C943490605D44021C9430161204600F0CC
:102BB000F5FA20680169C943890609D4C168C94387
:102BC000890605D42021C94301612046FFF7ABFDEA
:102BD00070BD000070B586B0044614216846FDF74C
:102BE000F3FA1F4E2568092000231E4974130222A0
:102BF000C006B5420BD14D6925434D6149696D460B
:102C00002140059140210EC50121039324E0164E79
:102C1000B54211D14C69680104434C614969009285
:102C200001400591029303930493019269460F4872
:102C3000FEF73EFD06B070BD0D4B9D42FAD14B69CB
:102C400023434B6149690192214005918021009104
:102C5000032103910292052104916946E8E70000EF
:102C60000004004000100240002000400004004822
:102C7000004801407047F8B5064604462036307FCC
:102C800000270D4601280ED001203077002A0CD0F5
:102C9000042A1BD0082A2FD00C2A3ED0012700205E
:102CA00030773846F8BD0220F8BD206801F020F8E2
:102CB00020688169082211438161206882690421AA
:102CC0008A438261206881692A6912E0206801F0E4
:102CD0004BF8206882690121C9020A438261206899
:102CE00081690122920291438161206881692A6988
:102CF000120211438161D2E7206801F06FF8206869
:102D0000C16908221143C1612068C26904218A4354
:102D1000C2612068C1692A6912E0206801F09AF84E
:102D20002068C1690122D2021143C1612068C269D1
:102D3000012189028A43C2612068C1692A6912029D
:102D40001143C161ABE770B5040005D025462035BD
:102D5000687F002802D006E0012070BD002028779F
:102D6000204600F014F802206877211D206800F04A
:102D7000E9FE01204034A071A877E87720706070E8
:102D8000A070E070207160716877002070BD70479E
:102D900010B50021034800F063F9024900200968DA
:102DA000486310BD200300207047000010B50446A2
:102DB0000222203000290AD004290DD020464030BC
:102DC00008290ED04378012B10D0012010BD837F3D
:102DD000012BFAD182770AE0C37F012BF5D1C277AC
:102DE00005E00378012BF0D1027000E0427001226F
:102DF000206800F0E3FE10492068884205D00F4AA1
:102E0000904202D00E4A904204D1426C0123DB036F
:102E10001A43426420680122884202D0094988424C
:102E200004D181684907490F062902D0016811437E
:102E30000160002010BD0000002C01400044014052
:102E40000048014000040040F8B5044600200D464B
:102E5000009021462046203140309446002D0AD073
:102E6000042D0DD0082D10D04278022A12D04278BD
:102E7000012A11D075E08A7F022A0BD08A7FF7E7FA
:102E8000CA7F022A06D0CA7FF2E70278022A01D05E
:102E90000278EDE70220F8BD6246002A01D1002B3E
:102EA0005FD10226454F464A002D09D0042D18D087
:102EB000082D27D046700C2D44D0012000907BE0D7
:102EC0008E77606A8762606AC262616A3D480863A1
:102ED000226861463432606AFEF728FB002840D140
:102EE00021E0CE77A06A8762A06AC262A16A3548F3
:102EF0000863226861463832A06AFEF717FB002893
:102F00002FD115E00670E06A8762E06AC262E16A6A
:102F10002C480863226861463C32E06AFEF706FBF3
:102F200000281ED109E02068C168012252021EE07B
:102F30002068C1680122920219E02068C16801225C
:102F4000D20214E0206B8762206BC262216B1D48A5
:102F50000863226861464032206BFEF7E7FA0028DA
:102F600001D00120F8BD2068C1680122120311437D
:102F7000C16001222946206800F020FE1249206825
:102F8000884205D0114A904202D0114A904204D1A1
:102F9000426C0123DB031A43426420680122884209
:102FA00002D00C49884204D181684907490F06299B
:102FB00002D00168114301600098F8BDD73B0008BA
:102FC0003D3C0008753C0008002C014000440140D5
:102FD000004801400004004070B504460D460068FA
:102FE000002200F0EBFD1B4A194B2068911098421B
:102FF00005D0194B984202D0184B98420AD1036A67
:10300000134207D1036A0B4204D1436C0126F60335
:10301000B34343642068036A134206D1026A0A423A
:1030200003D1016849084900016020462030012190
:10303000002D07D0042D07D04034082D06D0617034
:10304000002070BD8177FBE7C177F9E72170F7E7D2
:10305000002C0140111100000044014000480140D3
:10306000F8B500260D460446002907D0042D0DD0E2
:10307000082D13D00C2D19D0012652E02068C1680C
:10308000012252029143C160606A16E02068C16863
:10309000012292029143C160A06A0EE02068C168DB
:1030A0000122D2029143C160E06A06E02068C16853
:1030B000012212039143C160206BFEF79BF90022AD
:1030C0002946206800F07AFD1B491A4B20688A10B7
:1030D000984205D0194B984202D0194B98420AD118
:1030E000036A0B4207D1036A134204D1436C0127E0
:1030F000FF03BB4343642068036A0B4206D1016AA5
:10310000114203D1016849084900016021460120AC
:103110002031002D07D0042D07D04034082D06D0D3
:1031200060703046F8BD8877FBE7C877F9E7207014
:10313000F7E70000002C014011110000004401409D
:103140000048014070B51249884220D1114D0A2132
:103150002888FCF7C7FF104E002905D170690121AE
:103160000843706101F07EF8288864210446FCF76A
:10317000B9FF002903D170690221084370617D20E5
:10318000C000844201D2641C00E000242C8070BD89
:10319000D8020020000000205800002070470000E6
:1031A00010B586B0044614216846FDF70DF81249A3
:1031B000206888421DD111488269012189030A4390
:1031C000826182690A4005924269C9000A434261EC
:1031D00040690840059004200090122001900121D0
:1031E000032003900291049109206946C006FEF76E
:1031F0005FFA06B010BD0000003801400010024028
:10320000FEE701688A69D243920701D400228A62EC
:1032100000688169C943C90703D08169012211434C
:1032200081617047F7B5044600680F468169C9435C
:10323000C90636D44168890104D441680122920349
:103240001143416000262546403520688069C0430F
:10325000800612D5781CF8D0FEF708FB0299401AB8
:10326000B84201D8002FF0D1616C20200143616485
:103270006870AE702E700120FEBD21681020C861FC
:1032800020682027C7612046FFF7BBFF2068416800
:10329000054A11404160606C0421084360646F700E
:1032A000E7E70020FEBD000000E800FEF8B5044698
:1032B000164615481D46DAB20090079F00232046A7
:1032C00000F054F83A462046069900F0B0F800287D
:1032D00018D12846F5B2012809D02168300A886241
:1032E0003A462046069900F0A2F800280AD1206844
:1032F00085620097002240212046069B00F04AF894
:10330000002800D00120F8BD00200080F8B5044658
:10331000164615481D46DAB2C3020090079F2046A4
:1033200000F024F83A462046069900F080F800287C
:1033300018D12846F5B2012809D02168300A8862E0
:103340003A462046069900F072F800280AD1206813
:1033500085620097002280212046069B00F01AF823
:10336000002800D00120F8BD00200080F0B50668DC
:10337000059C7568064F600D384385438805800DB0
:10338000110408431843204305437560F0BD000055
:10339000FF63FF03F8B51D4617460E46044609E0D5
:1033A000681C07D0FEF762FA0699401AA8420BD8AB
:1033B000002D09D020688169304688430FD0002055
:1033C000B842EDD00020F8BD616C2020014361645B
:1033D000403460700020A07020700120F8BD0120F2
:1033E000EEE770B516460D4604460FE03246294614
:1033F0002046FFF717FF002801D0012070BDFEF71F
:1034000035FA801BA84208D8002D06D020688069B4
:10341000C0438006EAD4002070BD616C20200143C7
:103420006164403460700020A0702070E5E770B5E2
:1034300016460D46044611E0324629462046FFF75F
:10344000F1FE002801D0012070BD681C06D0FEF7F7
:103450000DFA801BA84208D8002D06D0206880698C
:10346000C0438007E8D4002070BD616C2020014378
:103470006164403460700020A0702070E3E70000B9
:103480003EB500242549264800940194029412C0B8
:1034900004600125856004214460C16004744474A3
:1034A0008574C474FF21C2318461416101461831C1
:1034B0000D7104620838FDF73FFE002801D0FDF7CA
:1034C000B6FB01200003019007200290009469469A
:1034D0001348FDF73DFD002801D0FDF7A8FB694624
:1034E0000F480095FDF734FD002801D0FDF79FFB44
:1034F0000320009069460A48FDF72AFD002801D004
:10350000FDF795FB1020009069460548FDF720FD6A
:10351000002801D0FDF78BFB3EBD000000240140D8
:103520001001002008B51048416901221143416192
:10353000406910400022009011460920FEF7D8FC97
:103540000920FEF7C9FC002211460A20FEF7D0FC34
:103550000A20FEF7C1FC002211460B20FEF7C8FC32
:103560000B20FEF7B9FC08BD0010024070B586B014
:1035700014216846FCF728FE254842690121890587
:103580000A43426142690A400592426949110A436D
:10359000426142690A400592426949000A43426118
:1035A00040691C4E08400590002202213046FEF77B
:1035B00056F90125312424040095694630460295C8
:1035C0000194FEF775F8002102200291039100900A
:1035D000019569463046FEF76BF830206A4631C2E5
:1035E00009206946C006FEF763F80022114605204F
:1035F000FEF77EFC0520FEF76FFC00221146072037
:10360000FEF776FC0720FEF767FC06B070BD0000F1
:10361000001002400014004810B51449144801225B
:1036200006C0002101608160C160016141614260AA
:1036300081610838FEF79EF9002801D0FDF7F7FAFE
:1036400000210B48FEF74DF9002801D0FDF7EFFAF5
:1036500000210748FEF76AF9002801D0FDF7E7FAD4
:103660000448016802011143016010BD005400408C
:10367000940100200000014010B50A48084901608B
:103680007F228260002141600161FF224161C260AE
:103690008161FEF73DFF002801D0FDF7C8FA10BD9B
:1036A00000280040E001002010B588B01C216846C9
:1036B000FCF78AFD1748164901604B210024890157
:1036C00084604160046114218461C160FFF784F863
:1036D000002801D0FDF7ABFA0E48FFF734FB0028B5
:1036E00001D0FDF7A4FA602000900320019002941D
:1036F0000022694604940748FFF7BDFA002801D06C
:10370000FDF795FA0348FFF765FA08B010BD000011
:10371000002000409002002010B50B4809490160CC
:103720004B21890141600021816064220161C260F6
:10373000416180218161FFF74FF8002801D0FDF73A
:1037400076FA10BD00440140D802002010B590B0B8
:103750001C2108A8FCF738FD20216846FCF734FD41
:1037600020492148002412C0046084603C21C460C8
:103770004160802101610838FFF72EF8002801D050
:10378000FDF755FA1848FFF7DEFA002801D0FDF7DB
:103790004EFA60200890042009940C900A940B942F
:1037A0000D94002208A90E940F48FFF764FA002830
:1037B00001D0FDF73CFA01200094400302940590EB
:1037C000019403940494694607940748FEF7ACFFFC
:1037D000002801D0FDF72BFA0348FFF7FBF910B0E2
:1037E00010BD0000004801402003002010B586B045
:1037F00000240094184801940294039404941549F9
:10380000059401604B218901846041600461642159
:103810004461C16080218161FEF7DEFF002801D094
:10382000FDF705FA01200003009069460A48FFF7FA
:10383000AFF8002801D0FDF7FAF9049404A906486E
:103840000594FEF7A1FF002801D0FDF7F0F906B0BE
:1038500010BD0000002C01400002002010B58EB009
:1038600000240794089409940A940B941C21684638
:103870000C94FCF7A9FC20481E49016030218460AB
:103880004160046164218461C160FEF7A5FF0028E6
:1038900001D0FDF7CCF901200003079007A91648D5
:1038A000FFF776F8002801D0FDF7C1F91248FFF7BD
:1038B0004AFA002801D0FDF7BAF90B940BA90E487B
:1038C0000C94FEF761FF002801D0FDF7B0F96020ED
:1038D0000090019402940022694604940648FFF780
:1038E000CAF9002801D0FDF7A2F90348FFF772F9E1
:1038F0000EB010BD000400404802002010B50C4876
:103900000A490160E1214902416000218160C160F2
:1039100001618161C1610C22016242614162FDF776
:10392000ABFF002801D0FDF782F910BD003801403F
:10393000F0030020FEE70000F8B53D4F0122022110
:103940003846FDF78CFFFDF791FF3A4D3A4C686021
:103950002078C00711D07D26F600FDF787FF696843
:10396000401AB04205D9002202213846FDF777FF00
:10397000FEE72078C0088007EFD50F206946087061
:10398000282048700621684600F0D6FC00206946D1
:10399000087048702068C008C0002060FDF766FF0E
:1039A000FF26F5366860FDF761FF6968401AB0428E
:1039B00005D9002202213846FDF751FFFEE72078A5
:1039C000C007F0D02068C008C0002060FDF74EFF9F
:1039D0004B2636016860FDF749FF6968401AB0421E
:1039E00014D9002569464878401C48700120FDF72D
:1039F000D3FD0621684600F09FFC6D1CEDB2FF2D43
:103A0000F0D32068C008C0002060F8BD20784008CE
:103A10008007800FDFD0FDF729FF6968401AB042A8
:103A2000D9D2002202213846FDF719FFFEE7000037
:103A300000140048000000205800002070470021BA
:103A400002E00A38C0B2491C0A28FAD20907090E56
:103A50000843704770B504460068C168490613D42E
:103A60000021C943C160FDF701FF7D260546F60030
:103A700006E0FDF7FBFE401BB04201D9032070BDFC
:103A80002068C0684006F4D5002070BD704710B5AE
:103A9000FEF7D4F910BD000030B595B0302168466E
:103AA000FCF792FB00240F941A20009001200D9443
:103AB0000C941294119403901021059007900E9489
:103AC000052010941394C0040491022506910A90D5
:103AD000089509940B946846FEF756FB002801D020
:103AE00072B6FEE707200C900E9401210D950F94FD
:103AF0000CA8FEF775FA002801D072B6FEE7074859
:103B00001090C01111901294139410A8FEF7F4F9BC
:103B1000002801D072B6FEE715B030BD21000100CB
:103B20007047000010B50248FEF7A2FF10BD00006C
:103B3000D802002010B50248FEF79AFF10BD000021
:103B40000002002070B50268174B184E984201D051
:103B5000B04203D17024A2434C682243144C154D4B
:103B6000984208D0B04206D0134EB04203D0A042D3
:103B700001D0A84204D103263602B243CE683243B4
:103B80008026B2434E69324302608A68C2620A6884
:103B90008262984203D0A04201D0A84201D10969B3
:103BA00001630121416170BD002C0140000400400F
:103BB00000440140004801400020004010B5CB0601
:103BC000DB0E0121046A99408C430462016A9A4029
:103BD0001143016210BD10B5446A0121626A82423C
:103BE00006D121778069002822D13E2001551FE0AF
:103BF000A26A824207D1022222778069002817D167
:103C00003F20015514E0E26A824207D10422227764
:103C1000806900280CD14020015509E0226B8242C6
:103C200006D1082222778069002801D14120015560
:103C30002046FFF7ADF80020207710BD10B5446A8C
:103C4000616A814201D101200DE0A16A814201D166
:103C5000022008E0E16A814201D1042003E0216BE7
:103C6000814201D1082020772046FFF79DF80020EF
:103C7000207710BD10B5446A0121626A824203D1E7
:103C800021773E20015519E0A26A824204D1022028
:103C900020773F20015511E0E26A824204D10420DE
:103CA00020774020015509E0226B824204D1082090
:103CB00020774120015501E03D2001552046FEF7C7
:103CC000D5FE0020207710BD30B58468FF252D0279
:103CD0001B021343AC430B432343836030BD826814
:103CE00070239A430A4307210A4382607047000009
:103CF000F0B5026A520852000262056A436882699E
:103D00007024A24392080C68920014430222954347
:103D10008A68134E2A43114DA84204D0B04202D003
:103D2000104FB84206D10827BA43CF681743042280
:103D300097433A46A84204D0B04202D0094DA84267
:103D400006D103252D02AB434D691D438B692B43DF
:103D500043608461496841630262F0BD002C014008
:103D6000004401400048014070B5026A10239A43A4
:103D70000262046A4368826973252D02AA430D68B2
:103D80002D021543202294438A6812012243104CCD
:103D9000A04208D11446CA688026B44312012243C7
:103DA0004024A24305E00B4CA04202D00A4CA042A2
:103DB00008D10324A402A3434C69A4001C438B69CB
:103DC0009B0023434360856149688163026270BD43
:103DD000002C0140004401400048014070B5026AD7
:103DE000FF2301339A430262046A4368C269702563
:103DF000AA4392080D68920015430122520294438F
:103E00008A6812022243104CA04207D1C414A24374
:103E1000CC68240222430615B24305E00B4CA042B5
:103E200002D00B4CA04208D103242403A3434C69C5
:103E300024011C438B691B0123434360C56149680E
:103E4000C163026270BD0000002C014000440140CB
:103E50000048014030B5026A01231B039A43026205
:103E6000056A4268C36973242402A3430C682402D0
:103E70001C4301235B039D438B681B032B430A4DAB
:103E8000A84205D0094DA84202D0094DA84205D14B
:103E90000125AD03AA434D69AD012A434260C461C7
:103EA00049680164036230BD002C014000440140B8
:103EB0000048014030B5036A046A64086400046283
:103EC0008469F025AC43120122430A24A3430B4327
:103ED0008261036230BD30B5036A1024A3430362DC
:103EE0008469036A0F252D031203AC432243A024E7
:103EF000A343090119438261016230BD10B5818C71
:103F0000C90707D001684A6801235B049A43836AA2
:103F10001A434A60818C890707D501684A680123E2
:103F20001B049A43C36A1A434A60818C490707D528
:103F300001684A6801239B049A43036B1A434A6051
:103F4000818C090707D501684A680123DB039A437E
:103F5000436B1A434A60818CC90607D50268916891
:103F600001231B039943836B19439160818C89065C
:103F700007D501688A6801235B039A43C36B1A4320
:103F80008A60818C490612D503685A6801210905A7
:103F9000046C8A4322435A60026C8A4207D1026849
:103FA000516803235B059943436C19435160818C2D
:103FB000090607D501684A680123DB04806C9A432F
:103FC00002434A6010BD0000F8B504460026803068
:103FD0000660FDF74BFC054620680068124F00079D
:103FE00009D501212B46002249052046009700F003
:103FF000ABF800280DD12068006840070BD50121DF
:104000002B46002289052046009700F09DF80028E5
:1040100001D00320F8BD2020A067E0672666603449
:1040200026750020F8BD0000FFFFFF0170B50446B3
:1040300080682169E26908436169002511430843EA
:1040400021680A683C4B1A4002430A6021684868AC
:10405000032212039043E26810434860A169206A7A
:10406000084321688A680B231B029A4302438A6033
:104070003248006B8007800F16D0012818D0022824
:1040800018D0032812D010210120E369C0032C4A64
:104090002C4E83422BD100290ED002290FD00429A7
:1040A0000FD008293FD110E00021EDE70221EBE716
:1040B0000421E9E70821E7E7FEF716F803E01046D8
:1040C00003E0FEF721F8002831D0616840004A087B
:1040D0008018FCF707F880B201461039B14222D8A7
:1040E0001849491C01400007400F08431DE0002902
:1040F00006D0022907D0042907D0082913D108E0E7
:10410000FDF7F2FF03E0104603E0FDF7FDFF002896
:104110000DD061684A081018FBF7E4FF80B2014631
:104120001039B14201D9012501E02168C8600020A1
:104130006066A066284670BDF369FFFF001002406C
:1041400000127A00EFFF0000FFB581B00546174668
:10415000044660350A9E55E0701C53D0FDF786FB7F
:104160000499401AB04230D8002E2ED02068016841
:10417000490747D5C069C043000543D401202168E1
:10418000C0020862EFF31080012181F310882168DA
:104190000B68FF22A13293430B6080F31088EFF38A
:1041A0001080012181F3108821688A68520852002A
:1041B0008A6080F310882020A067E0678034206048
:1041C00000202875032005B0F0BDEFF31080012119
:1041D00081F3108821680B68FF22A13293430B60A2
:1041E00080F31088EFF31080012181F3108821689B
:1041F0008A68520852008A6080F310882020A067E5
:10420000E067DDE72068C1690298884304D0002098
:10421000B842A1D00020D6E70120F9E770B50068C8
:104220000D49884216D100200C4D0D4E0446002148
:104230008A0012195200AA5A491C1018C9B214292E
:10424000F6D31421FBF74EFF6100641CE4B27052F8
:10425000042CECD370BD000000240140700000204D
:104260001000002070B5134C6088FCF7EBF9124A7F
:10427000124BFCF7FFF8FCF707FA114D6860A088B5
:10428000FCF7E0F90F4A104BFCF7F4F8FCF7FCF9E7
:10429000A860E088FCF7D6F90C4A0D4BFCF7EAF869
:1042A0000C4A0D4BFCF7DDF8FCF7EEF9286100F045
:1042B00015F870BD10000020C6B656C56526823FB1
:1042C000580000209242B4B16DAC3F3F992842EAB9
:1042D00076F6C73FB0726891ED587640F8B5144D48
:1042E0002888FCF7A7F9032101F0BEF9114C216AD7
:1042F000FBF7CEFF07462888FCF79CF9022101F066
:10430000B3F9216AFBF7C4FF06462888FCF792F947
:10431000E169FBF7BDFFA169FBF761FF3146FBF7E0
:104320005EFF3946FBF75BFF21462831C860F8BDC8
:10433000100000203000002070B5044600201C4A08
:1043400031E0002365789D402D0601D5282500E049
:1043500012254600401C5B1CDBB2955380B2082B33
:10436000F0D3002325789D402D0601D5282500E0B7
:1043700012254600401C5B1CDBB2955380B2082B13
:10438000F0D30023A5789D402D0601D5282500E017
:1043900012254600401C5B1CDBB2955380B2082BF3
:1043A000F0D3491E89B20029CBD100F003F870BDCB
:1043B0008809002010B50346024A00210248FEF792
:1043C00043FD10BD88090020200300200FB410B564
:1043D00004A9074B02AA039800F034F9044602A985
:1043E000002000F0CDFC204610BC08BC04B01847EB
:1043F000814D00082021020C01D010211046020A34
:1044000001D010460839020901D01046091F820860
:1044100001D01046891E420801D0881E7047081A34
:104420007047F8B5040C8BB2264682B25E430D0C81
:104430001046370C5843360480190021794116463E
:104440006E43370C36048019794126466E4389192C
:10445000F8BD30B47446641E2578641CAB4200D2AB
:104460001D46635D5B00E31830BC18478307FF22DD
:10447000DB0E9A408907090E9940002808DB830863
:1044800009489B001B181868904308431860704740
:104490000007000F0838830804489B001B18D869E0
:1044A00090430843D861704700E400E000ED00E06D
:1044B00002E008C8121F08C1002AFAD170477047ED
:1044C000002001E001C1121F002AFBD1704700004B
:1044D000F0B51FB486B00998089A030D0021024375
:1044E00014D05148514A1818504305141198012806
:1044F00010981AD0281A401C00264D4F4D4900969E
:1045000001910490002812DA444211E0119801242C
:1045100049A3012801D11098C1430698119A8460DB
:104520000360C26041600BB0F0BD4042E4E7044666
:10453000210500203F4A001C51410391029012E0E6
:10454000E00707D032463B4601990098FBF792FFFF
:104550000191009032463B4610461946FBF78AFF10
:1045600006460F466410002CEAD10498039B0028ED
:10457000029A0999089806DAFBF77CFF019B009ADA
:10458000FBF778FF05E0FBF7DDFF019B009AFBF7E7
:10459000D9FF04460E460022284BFCF77FF903D8CA
:1045A0000020C043014607E00022254B204631464B
:1045B000FBF7ACFEFCF752F9102409E0002C0ADBF3
:1045C0000A220023FBF7B8FD079B30321A55641E00
:1045D00002460A43F2D11122641C079B121B1C19CC
:1045E000119B012B03D0012308430ED10AE008439D
:1045F00004D0112010900020119077E71098151A20
:104600006D1E0BE01098824202DD00236D1C03E05A
:10461000824201DA00236D1E002BEED0069811991C
:104620008260C16030C07EE701FCFFFF104D0000DA
:10463000000014400000F03F300000000000F04394
:104640000000E03FFFB597B0064600251BE2252895
:1046500076D100242746F749049400E00443761CF1
:1046600032780120203A90400842F7D130782A2849
:104670000ED00222307801463039092916D8049923
:104680000A235943303940181443761C0490F1E74B
:10469000189802C804911890002904DA01204003F8
:1046A00004434842049002200443761C30782E28AC
:1046B00014D1042004437078761C2A2809D1189854
:1046C000761C80C8189009E00A214F43303FC71973
:1046D000761C3078014630390929F5D930786C28B4
:1046E00010D006DC4C281AD068280ED06A2817D1C2
:1046F00004E0742813D07A2812D110E0012040057C
:1047000004430CE00121090501E0032109050C43E4
:104710007178814203D1012000052418761C761C93
:10472000307866280BD013DC58287DD009DC0028AF
:104730007BD04528F6D04628F4D047281AD1A9E1E5
:1047400018E0632835D0642870D0652812D1A1E123
:1047500070286CD008DC6728F1D069287DD06E28DD
:104760000DD06F2806D1BCE073282ED0752873D0E9
:10477000782859D01A9A199990476D1C82E16002E5
:10478000400F022809D003280DD00428189801688A
:104790000DD00D60001D189074E11898EA1701689B
:1047A0000D604A60F6E7189801680D80F2E70D7019
:1047B000F0E718986A4601781172001D18900020E1
:1047C000507202A80090012005E0189802C81890C5
:1047D00000200091C04361070ED5002101E001993E
:1047E000491C0191B94213DA8142F8DB019A009920
:1047F000895C0029F3D10BE0002101E00199491CFB
:1048000001918142FADB019A0099895C0029F5D176
:10481000019904981A9B471A21463846199A00F0C4
:1048200099FA4019019903E051E030E115E050E0B8
:10483000451807E0009800990078491C00911A9AE1
:10484000199990470198401E0190401CF2D12146D1
:1048500038461A9B199A12E137E00A20002100908D
:1048600001916002410F022907D0189A01CA1892DB
:10487000C2179446032908D00AE01898C01DC10841
:10488000C90005C91891944607E000B2C2179446C2
:10489000042902D140B2C1178C46002261469445DA
:1048A00006DA0A460021404291418C462D2102E061
:1048B000210504D52B216A461173012103E0E1078C
:1048C00001D02021F7E7029156E00A200AE01020EB
:1048D00008E01020009000210420044301910827E3
:1048E00003E008200021019100906002410F02299D
:1048F00007D0189A01CA189200229446032908D0BA
:1049000008E01898C01DC108C90005C9189194464F
:1049100003E080B2042900D1C0B200210291210736
:104920002AD531780D91702906D0009A1021019B6B
:104930004A401A4305D00EE040216A461173012116
:1049400008E06146014306D030216A4611730D9993
:10495000517302210291009A0821019B4A401A4397
:104960000AD16146014301D1610705D530216A466C
:10497000117301217F1E02913178582904D02EA194
:104980000E910DA90D910DE030A1F9E76146019B53
:10499000009AFBF7D1FB0E9B8C469B5C0D9A521E36
:1049A0000D92137061460143F0D10D9805A9081AC4
:1049B00020300190600703D501200004844300E00B
:1049C00001270198874201DD381A00E00020019993
:1049D00000904118029809180498401A0490E003C6
:1049E00006D421461A9B199A049800F0B3F9451988
:1049F000002706E003A81A9AC05D199990476D1C1C
:104A00007F1C02988742F5DBE0030CD521461A9BF8
:104A1000199A049800F09EF9451904E01A9A30207A
:104A2000199990476D1C0099481E00900029F5DCEB
:104A30001FE00000092801003031323334353637A9
:104A400038396162636465660000000030313233DA
:104A5000343536373839414243444546000000007A
:104A60000D980D990078491C0D911A9A1999904743
:104A70006D1C0199481E01900029F1DC4DE100F008
:104A800059F94519761C3078002800D0DFE5284612
:104A90001BB0F0BD600700D406271898C01DC108E0
:104AA000C90048680A680831C30FDB07189119006C
:104AB00001D09CA108E0210501D59BA104E0E107FC
:104AC00001D09AA100E09AA14300109130785B08D0
:104AD00065280CD006DC452809D046281DD047287B
:104AE00041D141E0662818D067283CD13CE0002144
:104AF000112F01DB112000E0781C0191009008A922
:104B000011A8FFF7E5FC139905910021119A159260
:104B10007F1C12980197009150E00120C00703907C
:104B20000120019008A9009711A8FFF7D1FC139A62
:104B3000149905920022119B009212981593059AE0
:104B40000192002901D0104602E0791C4018019022
:104B5000381A01D5019804E04042401E0090781CAC
:104B60000190C01B029043E0012F00DA01270021D1
:104B7000112F01DD112000E038460191009008A9B5
:104B800011A8FFF7A5FC13990591119A002112981D
:104B900015920091019721070CD40599B94201DBC8
:104BA000019900E00191012904DD159A491E515C2B
:104BB000302906D0B84201DA011D05DA012102913F
:104BC00015E00199491EEDE7002805DC0099411820
:104BD00000910199091A03E0019A411C914200DDFC
:104BE00001910099401A401C02900120C0070390D7
:104BF000200706D402990198814202DB0020C043BD
:104C0000029000206946C87707AF01210398033757
:104C1000C907884224D0022011902B2012900398BB
:104C200000280CDA404203902D20129007E00A2160
:104C30000398FBF757FA30317F1E039039701199B2
:104C4000481E11900029F2DC03980028EFD1791E4C
:104C5000129808703078202108404530BF1E387007
:104C600006A8C01BC01D039010980078002800D033
:104C70000120019941180298C017091803980918D2
:104C80000498401A401E0490E00306D421461A9B63
:104C9000199A049800F05EF84519109800780028D9
:104CA00003D01A9A199990476D1CE00324D5214628
:104CB0001A9B199A049800F04DF845191CE00098C9
:104CC000002807DB00990598884203DD1598405CB1
:104CD000199901E0199930201A9A904700986D1C93
:104CE000401C00900298401E0290002804D11A9A9D
:104CF0002E20199990476D1C0199481E019000299A
:104D0000DDDC05E038781A9A7F1C199990476D1CF4
:104D10000399481E03900029F4DC21461A9B199A36
:104D20000498ACE62D0000002B00000020000000DD
:104D300000000000F8B5044600251E46174688040A
:104D400004D405E039462020B0476D1C641EF9D517
:104D50002846F8BDFFB50446002581B01E46C803AD
:104D600001D5302700E02027880404D505E0384627
:104D70000399B0476D1C641EF9D5284605B0F0BDF7
:104D80000A68531C0B6010707047000070B5044631
:104D9000154800F025FD1549204601F00EF914A331
:104DA00017A61AA51EA410220F210F4800F0E4FF39
:104DB000334620221E210C4800F0DEFF2B46302215
:104DC0000021094800F0D8FF23464022232106484D
:104DD00000F0D2FF044801F0D4F8034801F081FF4D
:104DE0005028FAD170BD0000F4040020807400083F
:104DF00052544B32302048656174426564000000B3
:104E00004C69616F5A68654C696E00006769746827
:104E100075623A6C6F6E646F6E6C6F766500000041
:104E2000323032322D312D3134000000F1B5B0B0C6
:104E300063A00A9066A009906AA008906DA0012660
:104E4000002507900A98029500900195079B089A03
:104E50000999309801F03BF9012803D00228F1D1DB
:104E600031B0F0BD6C4C67A7207881006B4840588A
:104E7000FBF7F6FB02460B4669A10BA8FFF7A6FA63
:104E800062886BA113A8FFF7A1FA60786BA100916B
:104E9000019013AB3A4602960BA9309801F017F92E
:104EA000012806D002280ED0032814D00428D9D116
:104EB000C8E7657060886749884201D9084600E004
:104EC0000A306080CEE766706088002801D00A381A
:104ED000F7E70120F5E76088FBF7ACFB21781BAB17
:104EE0008A009850132901D9132100E0491CCFB240
:104EF000277020210BA8FBF767F9202113A8FBF7E7
:104F000063F9142F12D1444853A1407800910190C5
:104F100013AB0BAA029554A1309801F0D8F80128E0
:104F200006D002282CD00328EDD13B4C657099E7C0
:104F300003A91BA8FBF77EFE6420FCF72DFB049859
:104F4000FBF78EFB04460F460398FBF789FB0246EE
:104F50000B4649A10BA801970094FFF737FA069872
:104F6000FBF77EFB04460F460598FBF779FB0246EC
:104F70000B4641A113A801970094FFF727FAC2E757
:104F80004048039981610499C161059901620699BC
:104F90004162FBF797FDFF20F530FCF7FDFA202179
:104FA0000BA8FBF711F9202113A8FBF70DF936A187
:104FB0000BA8FFF70BFA38A113A8FFF707FAA2E72F
:104FC00053746172740A2043616E63656C20000043
:104FD00049742068617320323020506F696E747399
:104FE000000000005573696E672054656D704D6553
:104FF00074657200466F6C6C6F77204775696461E9
:105000006E636500526172654144203A2020202081
:105010002020202020200000080000201873000815
:10502000446573697265203A20252E31662043005D
:10503000436F6E526566203A20256400202B200ABB
:10504000202D200A2073617665200A20717569740D
:1050500020000000FE0F000043616C2D4B0A5361DD
:1050600076650A717569740043616C696272617476
:10507000652D43616C000000252E30346620252EFE
:10508000303466003000002053617665205375632C
:105090006365737321000000506C65617365205176
:1050A00075697400C000401EFDD27047FF21C9051C
:1050B000C84201D3090248407047000038B5044691
:1050C00000F08EFB0A49204600F077FF3C200222C8
:1050D00000907C231146204600F0EDFB05A32D2215
:1050E0000C21204600F048FE204600F04AFF38BD63
:1050F000C379000852544B323000000010B51049FB
:1051000049698A08D20702D000F0CCFA0BE08A077E
:1051100004D08907890F012903D004E000F078F852
:1051200001E000F0B3FA064C2834207D800705D555
:10513000FBF7C8FC606902218843606110BD000074
:105140003000002086B00020694688700120487039
:105150000870FCF77BFEFEF79FFC274C0C21606972
:105160008843800880006061FEF700FAFEF788F946
:10517000FEF752FAFEF772FBFEF796FAFEF7D2F947
:10518000FEF7BCFBFEF7E2FAFEF776FAFEF7C4FA8A
:10519000FEF72CFB3220FCF7FFF9FEF7CDFBFBF707
:1051A000D3FC7D20154DC000A86200211448FDF7F6
:1051B000FDFD6420FCF7F0F919204001A86264208D
:1051C000FCF7EAF94B20C000A8626420FCF7E4F980
:1051D00000210B48FDF700FF002269460948FDF752
:1051E00001FA0948FDF7B0FB606980088000606142
:1051F0000648FFF783FFFBE7300000200020004057
:1052000090020020E0010020D8020020F4040020D9
:10521000F1B586B00025029503950495069800F037
:10522000DFFA4749069800F0C8FE464C46A1227CAA
:1052300002A8FFF7CBF802AB1B222421069800F04E
:105240009BFD029503950495404DE868FBF708FA2D
:1052500002460B463EA102A8FFF7B8F802AB3D227A
:105260002421069800F088FD0A271E2600225F23CD
:10527000114639480197009600F0C5FC5F232222B1
:10528000002135480197009600F0BDFC334906988F
:1052900000F093FE0021304800F0A0FE30A314225D
:1052A00003212D4800F070FD2FA3372203212A4847
:1052B00000F06AFD03213520019100900A230022AD
:1052C0006221254800F09FFC022131200A4601910D
:1052D000009006236421204800F023FC244906980E
:1052E00000F06BFE23A341226221069800F044FDEA
:1052F000194800F046FE2868410706D56169042276
:105300001143C008C00061610AE0C108C9070AD0A2
:10531000217CA27B914200D2491C217438210CE0EF
:10532000286007B0F0BD8109C907FAD0217C0029A7
:1053300000D0491E2174FF21C1318843F0E70000ED
:10534000C379000830000020253364005800002095
:1053500025332E3066000000F4040020807300081E
:10536000E8AEBEE5AE9A0000E5BD93E5898D00008C
:10537000807400085000000070B506460DA50FA40B
:10538000124900F01AFE234601222946304600F059
:105390005BFF0F490C22012807D0022804D148697D
:1053A000800880009043486170BD48698008800093
:1053B000401CF7E74D6F6465000000005265666CA5
:1053C0006F770A4D616E75616C0000008074000893
:1053D00030000020F0B585B0504800F001FA4F4889
:1053E00000F0CFFD00264E4C4E4D10270196029640
:1053F0004A48039600F0F4F97F2310220021474821
:10540000009700F021FB2020024600907F2300211E
:10541000424800F019FB3020024600907F23002113
:105420003E4800F011FB3F20402300900022194627
:105430003A4800F009FB22883BA101A8FEF7C6FF0D
:1054400001AB0E220021354800F096FC628838A19D
:1054500001A8FEF7BBFF01AB1E2200212F4800F080
:105460008BFCA28834A101A8FEF7B0FF01AB2E226D
:1054700000212A4800F080FCE28831A101A8FEF753
:10548000A5FF01AB3E220021244800F075FCE8682E
:10549000FBF7E6F802460B462BA101A8FEF796FFA4
:1054A00001AB0E2243211D4800F066FC6868FBF743
:1054B000D7F802460B4627A101A8FEF787FF01ABEC
:1054C0001E224321154800F057FCA868FBF7C8F8D6
:1054D00002460B4622A101A8FEF778FF01AB2E225F
:1054E00043210E4800F048FC2869FBF7B9F8024652
:1054F0000B461EA101A8FEF769FF01AB3E22432126
:10550000064800F039FC054800F03BFD034801F077
:10551000E8FB502800D069E705B0F0BDF404002096
:10552000100000205800002041313A20256400007E
:1055300041323A202564000041333A2025640000BE
:1055400041343A202564000054623A2530342E312B
:1055500066430000563A2530352E3266560000006C
:10556000493A20252E33664100000000546D3A254B
:1055700030342E3166430000F8B5074627A52A4C83
:105580002A4900F01AFD234601222946384600F038
:105590005BFE0325AD06264CAE000300FEF759FF67
:1055A000071818181805192B180003252D0621A116
:1055B00022A30122384600F047FE012802D002282B
:1055C000F5D110E0E0680121A843090624E0E0607D
:1055D000F8BD1CA119A30122384600F035FE0128B0
:1055E00004D00228F5D1E068A843F0E7E068012183
:1055F000A843890610E015A116A30122384600F041
:1056000023FE012804D00228F5D1E068B043DEE78C
:10561000E0680121B04309074018D8E75065726976
:1056200070686572616C0000B07C000880740008CE
:105630003000002042454550000000004F4E0A4F08
:10564000464600005247425F4C4544005541525483
:105650000000000053454E445F4F4E0A53454E44F0
:105660005F4F46460000000070B506467F20C0052B
:1056700001240D46002908D003E001463046FAF720
:1056800007FE2146641CA942F7DD70BD10B5044633
:1056900000F0A6F80249204600F08FFC10BD000083
:1056A0008074000870B5044629A62DA53B4900F07A
:1056B00084FC2B4600223146204600F0C5FD030045
:1056C000FEF7C7FE080805090D1115191F08204629
:1056D000FFF752FE70BD2046FFF7A8FB70BD2046C5
:1056E000FFF778FE70BD2046FFF746FF70BD2046ED
:1056F000FFF74CFB70BD2A480C2241699143416180
:1057000070BDFBF7DFF94B20264CC000A0620021E2
:105710002548FDF74BFB6420FBF73EFF19204001B5
:10572000A0626420FBF738FF7D20C000A0626420E7
:10573000FBF732FF00211C48FDF74EFC6420FBF70D
:105740002BFF002202211948FCF789F8FEE7000030
:1057500052544B32302053657474696E67000000F8
:105760004D6F64650A43616C6962726174696F6E42
:105770000A4D6F6E69746F720A5065726970686560
:1057800072616C0A41626F75740A3E457869743CB7
:105790000A53687574646F776E00000080740008A7
:1057A000300000200020004090020020001400483B
:1057B00010B50446074B084A084900F047FC20464C
:1057C00001F005FB0021204601F011FB204600F00E
:1057D00007F810BDDD710008916E0008907B00088D
:1057E00010B501680A7C3821095C406B5143C9003F
:1057F000FAF7EAFC10BDFFB581B00A9C1E461019ED
:1058000080B2009002981546801983B202990198DF
:1058100000F084FB00280ED00027002C0BD033466C
:105820002A4600970299019800F0BFF86D1C641E8B
:10583000ADB2A4B2F1E705B0F0BDFFB51C4610193A
:1058400081B0401C80B20A9F00900819401C83B2AE
:105850001546101B82B20E46081B81B2019800F05B
:105860005DFB002806D023462A4631460097019862
:1058700000F01EFE05B0F0BDFFB51C46101981B04A
:10588000401C80B20A9F00900819401C83B2154644
:10589000101B82B20E46081B81B2019800F03EFB3D
:1058A000002806D023462A4631460097019800F08A
:1058B00082FE05B0F0BDFFB581B00A9E1546901975
:1058C00080B2009004980F460C18A3B2019800F023
:1058D00025FB00282AD0002000902A463946049B48
:1058E000019800F062F8022E20D3B61E6D1CB6B2ED
:1058F000ADB2002E12D00120009033462A46394620
:10590000019800F052F80120641E0090A1B23346C5
:105910002A46019800F049F8A81985B200200090A5
:105920002A463946049B019800F03FF805B0F0BDC7
:10593000F8B504466030007C1F4615460E46002828
:1059400006D0012809D002280CD0032815D10FE079
:10595000E16D20468847401908E0E16D2046884700
:10596000301A09E0E16D20468847281A85B204E024
:10597000E16D20468847801986B22246284640328B
:105980009684D08439460025204600F0F4FF0100BB
:1059900003D0204600F01EFF85B22846F8BD38B57A
:1059A0000024009400F001F838BD7FB50546803032
:1059B00082B0007B0A99002836D06846808A002889
:1059C00032D0012811D9022902D0032907D00CE0D6
:1059D0006A469289101A6A46401C908105E06A4620
:1059E000128A101A6A46401C1082CE072C46F60F07
:1059F0004034002E1AD0684621898089814213D80C
:105A00006189814210D9E389A28905A904A800F01F
:105A1000E8FC002808D00096286B84686846838AD2
:105A2000028A81892846A04706B070BD6846A189D0
:105A3000008A8142F8D8E1898142F5D963892289B7
:105A400005A903A8E3E70000FFB51C4685B00023C5
:105A50000E980293A14201D90B1B00E0631A9DB27C
:105A6000824201D9131A00E0831A9BB2AB420AD9D1
:105A7000012602962E461D4633460E4611463246F4
:105A8000264604463046A14205D90E4621463446F4
:105A90001646024630466E08904201D9012001E0C8
:105AA0000020C043019013480092844201D1641E3B
:105AB000A4B2D8B20F46039015E00298002816D081
:105AC00000993A46059800F017F80398301A06B284
:105AD000002E06DA00990198081880B2009070191B
:105AE00006B27F1CBFB2A742E7D909B0F0BD394664
:105AF000009AE7E7FFFF000038B504464034A38969
:105B000093420DD8E38993420AD923898B4207D85F
:105B100063898B4204D9002300930123FFF745FFDB
:105B200038BDFFB587B0109909981F464618B0B226
:105B300000900898119CC5190146ABB2099A0798C4
:105B400000F0ECF900285CD008982346001981B2D7
:105B500009980191001981B2281B401E85B2301BA3
:105B6000401E80B20290022003910A4600900199E3
:105B70000798FFF781FE0120009023462946039AEB
:105B80000798FFF779FE042000902346029A0199B6
:105B90000798FFF771FE0820009023462946029AD5
:105BA0000798FFF769FE0199381B491C89B20191DA
:105BB0000399001B491C80B289B20391032811D3B9
:105BC000801E86B2601C85B233460095099A019901
:105BD0000798FFF710FE33460095029A019907983F
:105BE000FFF709FE1098001B001B80B2032808D3A2
:105BF000801E80B200903B46039A08990798FFF7F1
:105C0000FAFD0BB0F0BDFFB585B00E9E0F9D90194B
:105C1000039080B2009006981C46001983B204904D
:105C200017460699059800F079F9002864D006987F
:105C30002B46401981B27819029181B204980191E2
:105C4000401B401E80B2049003980A46401B401E31
:105C500080B203900220009002990598FFF7EDFDB5
:105C6000012000902B46019A04990598FFF7E5FD65
:105C7000042000902B46039A02990598FFF7DDFD5A
:105C8000082000902B46039A04990598FFF7D5FD4C
:105C9000601B711B401B491B8DB2029980B2491CCD
:105CA00089B202910199491C89B20191032810D34C
:105CB000801E80B2034603903A46761E02990598EC
:105CC000FFF76DFEB81982B2039B02990598FFF7A2
:105CD00066FE032D10D3AD1EADB22B46641E019A95
:105CE0000699059800F0E4F806982B46001981B251
:105CF000019A059800F0DCF809B0F0BDFFB585B059
:105D000016460F46044600252FE0B8780E214019AC
:105D1000C3B208980F2284460020019000902046CC
:105D2000803041568256881A401C80B20390F87821
:105D3000984202D10120019000906146184601F07E
:105D400033F8002800D10BA0009900900291442064
:105D5000005B3246801E83B20121204600F01CF811
:105D6000039880196D1C86B2EDB23878A842CCD861
:105D700009B0F0BD0000000010B5024C446000F016
:105D8000C7FC10BD516E000810B5024C446000F015
:105D9000BFFC10BD8D720008FFB587B01C461546CC
:105DA0000021119E079800F016F90798C16D8847E9
:105DB000401980B209901099079800F0A7F80021C7
:105DC0000191A04204D2201A0004400C019000E08E
:105DD000044607980E2180304156099A089D521AB0
:105DE00092B203920F2282562746881A84B201216A
:105DF000079800F0DBF8129800281AD03B46009470
:105E00002946039A0798FFF7F6FC12E003986D1EE7
:105E1000401E80B2BF1CA41CADB2BFB2A4B20246E9
:105E200003903B46294600940798FFF744FD761EF1
:105E3000F6B2002EEAD11298002801D0002100E02D
:105E40000121079800F0B2F801990898109B4018BA
:105E500081B2099A0798FFF797FF0121079800F090
:105E6000A5F80BB0F0BDFFB583B0174600250D981F
:105E700000F08CFF0646002415E020460D9900F046
:105E800093FF00210191029100903A46069B0499EC
:105E90000398FFF781FF0C98381887B20C982818E0
:105EA000641C85B2E4B2B442E7D3284607B0F0BD23
:105EB00038B501240094FFF778FD38BD10B50446CD
:105EC0008030C07C002802D02046FFF789FC0021EA
:105ED000204600F05EF810BD70B5044600F04BFDA2
:105EE000011E12D0204600F082FD2046603005469B
:105EF000817E00F04BFC80342074E97E284600F05F
:105F000045FC297F284600F041FC70BD10B5024ACF
:105F1000426000F037FE10BD8D72000870B5044677
:105F200040341E460D46E189A089049B00F07AFDAD
:105F3000002805D06189208933462A4600F072FD89
:105F400070BD70B5044600F0FAFD21462031487E50
:105F5000097E0818C5B22068407CA84204D82046B3
:105F600000F03DFF002070BD9320005D002802D0AE
:105F70002046FFF735FC2946204600F00AF80120AC
:105F800070BD10B5044600F0DAFD204600F027FF92
:105F900010BD10B5044620304176206B01682046C4
:105FA0008847206B41682046884710BD8030817447
:105FB000032901D301218174704710B50446806D17
:105FC000884207D020467430A16500F083FD20464A
:105FD00000F058F810BD60300174704760304173B4
:105FE000704700000149C1657047000089670008DB
:105FF0000022014640310A828A82034A4A82CA82CA
:10600000016B496808470000FFFF0000F8B5002554
:10601000069F04468565C36241632030027645765B
:1060200026466036204680307573457401218174A0
:10603000C17427633968204688472046FFF7D8FF98
:106040002046FFF7CFFF3574F8BD00007CB5009304
:106050000C4613460546084A084900F0D0FE01A840
:1060600000F032FD0146684600940279044B284650
:10607000FFF7CCFF7CBD0000B96F0008D9700008A5
:106080003D6A000810B5816D002917D001468031A6
:1060900001228A568A730223CB56CB734C7B002C89
:1060A0000CD0012C0BD07E24045700200856241855
:1060B000944200DD8C73834200DDC87310BD032061
:1060C0000856824200DA887304200856F3E7FFB5C9
:1060D00085B00F980390174600210598FFF77BFFC6
:1060E0000598FFF77FFF059E8036B07BF17B401A55
:1060F000C5B2069800F04AFE401CC4B2002F01D081
:10610000641CE4B2089800F041FE0019C0B2684374
:10611000059CC01C81B24034E0880022884202D92C
:10612000401A0004420C0E203056801880B20490B1
:106130000598FFF7C3FE0698049E00950190A3887A
:10614000324600210598FFF78EFE801986B2002F97
:106150000BD000200190009702900146A3883246A0
:106160000598FFF719FE701986B2089800950190FE
:10617000A388324600210598FFF775FE8019C01CE0
:1061800081B20E980090A288039B059800F047F911
:1061900006460598FFF7D5FE0028CCD1059800F0FB
:1061A000A0FD50280ED0532811D0512811D05528C9
:1061B0000FD0522815D0542813D01099059800F00C
:1061C00019F8EBE70398401CC0B209B0F0BD0020FD
:1061D000FBE70398401CC0B20390B042A8D3002054
:1061E00006E00398002800D103960398401EC0B231
:1061F00003909DE710B586B0044601291ED11048D2
:1062000010A1028801A8FEF7E1F800212046FFF75F
:10621000CDFE0E20009032230F2250212046FFF7A2
:10622000EAFA01212046FFF7C1FE01AB1B225021F3
:106230002046FFF7A1FD2046FFF7A3FE06B010BDE4
:106240001000002025640000FFB58BB00B9D0E20D0
:1062500080350F21285669561746401A401C80B2D7
:1062600002900C9800F092FD0646002F01D07F1E90
:10627000FFB20B9C02994034E088002E04D0C01E6F
:10628000F9F746FF801B01E0F9F72CFF6946087318
:106290000E9800F07BFD6946002248738A73CF7325
:1062A000874201D3401EC873087BC97B884203D84C
:1062B000081A6946401C88730B98FFF793FE0B98E9
:1062C000FFF7FCFD0E202856002E87B218D00C993F
:1062D000029801910090A3883A4600210B98FFF79D
:1062E000C2FDC71902980F216956381A401A401C7E
:1062F00082B2A38800210B98FFF751FBFF1CBFB2AD
:106300003A4603A90E9B0B98FFF7F8FC0B98FFF792
:1063100018FE0028D6D10B9800F0E3FC50280DD0D1
:10632000532811D0512811D055280FD0522801D010
:106330005428F0D103A800F0B2FCC0E76846C07B47
:10634000401CC0B20FB0F0BD0020FBE703A800F076
:1063500091FCB4E7002B05D0012B05D0022B06D011
:10636000801802E0401800E0801A80B27047401A9E
:10637000FBE7002B05D0012B05D0022B06D0401ADD
:1063800002E0801800E0401880B27047801AFBE7F6
:1063900038B5044605464034E08A0090638AA28AF4
:1063A000218A2846FFF7BAFD8035002816D0012043
:1063B00028732189208A814200D220816189608AE4
:1063C000814200D96081A189A08A814200D2A08146
:1063D000E189E08A814200D9E08138BD002028733C
:1063E00038BD30B504880D882D19ADB2AC4205D941
:1063F0009C4202D25D1EADB200E014469C4201D226
:10640000954201D8002030BD944200D214469D42EE
:1064100000D91D460480281B0880012030BDFFB52F
:1064200083B017460C9800F0B1FC002506462C46B8
:106430000BE020460C9900F0B7FC01460398FFF7EB
:1064400065FD4019641C85B2E4B2B442F1D3062064
:1064500070434019801F80B20025B84202D2381A1A
:106460000004450C00241EE006980027844200D159
:10647000012720460C9900F097FC01216A4683C24F
:1064800000232946049A0398FFF786FC20460C99BE
:1064900000F08AFC01460398FFF738FD4019801D83
:1064A000641C85B2E4B2B442DED3304607B0F0BD1E
:1064B000FFB50120C01A06B25842400083B0012740
:1064C00000B200251C4602900FE0002E07DB029868
:1064D000641E801C00B202903018A4B206B26D1C7B
:1064E000BF1C3FB2F019ADB206B20C9905980191EC
:1064F000009022462946049B039800F004F8A54228
:10650000E3D307B0F0BDFFB589B012981546401B24
:106510000E460790981903901298139F801B0690BF
:106520005819F9071C46029000290DD0079882B22D
:10653000039881B20998FFF7DFFA069882B20298B1
:1065400081B20998FFF7D8FAA01B0590601BB90724
:10655000049000290DDA079882B2059881B2099853
:10656000FFF7CAFA069882B2049881B20998FFF739
:10657000C3FA129839074419851900290BDA0398D0
:10658000A2B281B20998FFF7B7FA0298AAB281B213
:106590000998FFF7B1FA78070BD50598A2B281B236
:1065A0000998FFF7A9FA0498AAB281B20998FFF7EF
:1065B000A3FA0DB0F0BDFFB50120C01A06B25842D3
:1065C000400083B0012700B200251C4602900FE076
:1065D000002E07DB0298641E801C00B20290301867
:1065E000A4B206B26D1CBF1C3FB2F019ADB206B228
:1065F0000C9905980191009022462946049B039826
:1066000000F004F8A542E3D307B0F0BDFFB585B0B4
:106610000F460E991646891B039108990F98C919C0
:1066200002910E99C007C91B01910899551C89193F
:106630007C1C009100280FD00398ABB282B2029864
:1066400081B20598FFF734FC0198A3B282B200989A
:1066500081B20598FFF72CFC08990F98CF1B800793
:106660008E1B00280DDA0398ABB282B2B9B205983E
:10667000FFF71EFC0198A3B282B2B1B20598FFF7F2
:1066800017FC0F9800070DD50298ABB281B20E9A95
:106690000598FFF70DFC0098A3B281B20E9A0598F9
:1066A000FFF706FC0F9840070BD5ABB2B9B20E9AB4
:1066B0000598FFF7FDFBA3B2B1B20E9A0598FFF75C
:1066C000F7FB09B0F0BD38B5C58F049C0094521B90
:1066D000C46A92B2A04738BDF8B504464034E68893
:1066E000A488B21A611A069D92B289B2002D02D016
:1066F000012D05D008E0521EC91A92B289B203E0FA
:10670000491ED21A89B292B20095FFF7DCFFF8BD9C
:10671000FFB581B01C46064600F0B4FD194F0025B8
:1067200072682178304690470346B84226D0154813
:10673000641C401E8342F3D03046039A0299FFF74F
:10674000F7F87021895D002906D0012907D00229B8
:1067500008D003290FD10AE00299091804E003992F
:10676000091806E00299091A89B2029103E0039917
:10677000091A89B20391281885B2D1E7284605B0D5
:10678000F0BD0000FFFF00000020704710B50C4670
:1067900000F006F80122641EA240801A40B210BD2B
:1067A00070B50568047B2A78E2406318DBB2082BD9
:1067B00009D30826341B6D1C05602D78A5401543B0
:1067C000083BEAB2DBB201248C40641E1440037320
:1067D000204670BDF3B583B0039C2046603400F0C2
:1067E00006F90B256557A17E2046FFF7CFFF074628
:1067F000E17E2046FFF7CAFF0646217F2046FFF7CD
:10680000C5FF01900A202056002858DDA8194042F3
:1068100046B2237CA08832463946FFF79BFDA08014
:10682000237C3246E0883946FFF7A3FDE080A1884B
:10683000267C02460B46002E06D0012E0AD0022EE0
:1068400040D0032E0FD146E00A26A65773189BB2FC
:10685000501907E0591B0A26491C5B1CA65789B230
:106860009BB2B01880B200900398FFF757FB002846
:1068700025D00020207260722046A17DFFF790FF96
:1068800007462046E17DFFF78BFF0646002239468A
:10689000039800F029F801223146039800F024F80B
:1068A00001212046FFF77CFF0028EFD10921615626
:1068B0002046A942E0DB817B0398803081740198F7
:1068C00005B0F0BD0A26A657991B491C5B1C89B26E
:1068D0009BB2421B04E00A264B19A6579BB2821BAF
:1068E000521C92B2401CBDE7F7B588B0089C0D461B
:1068F0006034277A607A0590089880300690A07AF4
:10690000C01BC6B20196B54200D20195A088E188AD
:1069100004910599237C4AB279B203920091FFF762
:1069200019FD0290237C039A00990498FFF721FD3A
:1069300002460A98002801D0A17B03E0607B002872
:1069400009D1E17B06988174207C0090019B02991B
:106950000898FFF72AF8B54207D3A81BC5B20598D7
:106960000027401CC0B20590C9E77819207205982D
:1069700060720BB0F0BD70B50D460146806D803180
:106980001730FF2D0FD8612D01D3098902E0412D69
:1069900001D3C9880818417800291FD00278AA427B
:1069A000F8D1801C70BD49890C182646002130465C
:1069B00000F016F804190221304600F011F8361DD7
:1069C000A842F3D3207801026078084306D0A84299
:1069D00001D1E01C70BDA0780419F3E7002070BD60
:1069E0004018017840780902401880B2704730B5ED
:1069F000044605460166603400202073217E20464F
:106A0000FFF7CEFEA072617E2046FFF7C9FEE0725E
:106A10008035A97CA173002902D00020E07330BD2D
:106A20000120FBE78A4205D2834201D89A4203D96A
:106A3000012070478342F9D800207047F0B58E4698
:106A40005607760F0121B140CFB2014680318C4606
:106A50000025897C2C46012901D83D4600D03C46C2
:106A60000768D2083F7CD2005743426BBFB2D119AE
:106A7000059A7144002A09D10878284360400870BB
:106A8000491C5B1E1B041B0CF6D1F0BD0A78761C5A
:106A90002A43624076075B1E760F0A709BB2002E77
:106AA00006D06A06150E6206140E002BEED1F0BD5C
:106AB000428F51186246927C012A02D80125012A90
:106AC000F3D00124F1E7000008210170004870476D
:106AD0008805002070B505460878287048786870E9
:106AE0008878A870C878E870087928714879687142
:106AF00088790C46A871E079E871207A2872607A6A
:106B00006872A07AA872E07AE872207B2873607BB2
:106B10006873A07BA873E07BE873207C2874112144
:106B20002046FFF75DFF688213212046FFF758FFDC
:106B3000A88215212046FFF753FFE88270BDFEB5FD
:106B4000054600242030017E0291467E2868407C64
:106B50000190296827460B7C696B5F43FF043F0C5B
:106B6000C919009128463246002100F0ADF8641C96
:106B7000761C0298E4B2F6B2844202D201988642B0
:106B8000E7D3FEBDF3B5054683B060300021019028
:106B90003F268172F643284600F074FB0024284605
:106BA00080302746009004986A680178284690470C
:106BB000144A0146904212D00498401C0490501E82
:106BC0008142F0D02846FFF787F987B2304640303F
:106BD00002D1009810268657E01984B2E3E70198A5
:106BE0000A21415600290AD0E01B081800991022FA
:106BF0008A56101884B2002E01DDA01984B22046F6
:106C000005B0F0BDFFFF000070B5014620310A7EDF
:106C10000C46D10003688187197CC9004187647ED6
:106C2000E100C1875D7CA618AE4201D92A1B92B251
:106C30004030D200018089184180998A8180D98AA8
:106C4000C18070BD10B5FFF7DFFF10BD10B5014664
:106C5000002240310A818B884B818A81CA884B8807
:106C60009A4201D3D31A8B810B88D21ACA81FFF7BB
:106C70008FFB10BD10B5C178491CC9B2C1704278F4
:106C8000914202D30021C17007E0837802789C18FA
:106C90004B1C9C4202D8891A491C817010BDC178D6
:106CA000002907D0491EC9B2C17082788A4200D932
:106CB0008170704741784A1EC2700022827002784B
:106CC0009142F6D9891AF3E77CB56C46069D61714D
:106CD000A27123710095012284686B460F21A047A1
:106CE0007CBDF8B5044600200090FF200025264614
:106CF00020364006070E0120F07128465030C1B200
:106D00000022204600F0A4FAF0796D1CC007C00FE5
:106D10003843EDB2062DECD32034A17A00290AD0F5
:106D2000002210290CD0202910D0302916D0491E5D
:106D3000A1720098F8BD217A8142FAD011200BE0AF
:106D4000217A814205D06072212005E0617A81427A
:106D500001D0A272EDE73020A072EAE7217A8142E9
:106D6000E7D1A272637A01220620401E0C461D461E
:106D700014401540C0B2AC4204D15206120E002895
:106D8000F3D106205030C0B20090D2E70121002894
:106D900009D00278002A05D0401C0A2AF9D1491CE2
:106DA000C9B2F6E70846704702460120002A07D01C
:106DB0000B78002B09D0491C0A2BF9D1904201D144
:106DC00008467047401CC0B2F2E70020704730B45C
:106DD00084680023A44630BC1A460A21604730B4B8
:106DE00084680023A44630BC1A461021604730B4A2
:106DF00084680023A4460A4630BC0B216047F8B5DE
:106E000015460E460446069F00F008F86761A66026
:106E1000E5602046236100F013F8F8BD0749816062
:106E2000C160002201610260416101462031CA70E7
:106E30008A718261FF20087108727047D971000859
:106E400030B484680023A44630BC1A460921604748
:106E5000080001D00A2800D100487047FFFF000059
:106E600030B404690023A44630BC1A461921604797
:106E700013B50122046901AB1721A0471CBD30B432
:106E800004690023A44630BC1A461821604700005C
:106E900038B5184818290DD004DC142907D0172953
:106EA00023D10AE0192915D020291ED11FE0FCF7B3
:106EB000B3FB1CE00021017019E00F4C07E00178E2
:106EC0001D786554491C521E0170D2B25B1C002A09
:106ED000F5D10CE07D21C90000910378064A7821A4
:106EE0000648FAF7A1FD002801D0002038BD012096
:106EF00038BD000028000020740400209401002008
:106F000030B4C4680023A44630BC1A461921604737
:106F100030B4C4680023A4460A4630BC162160473A
:106F200030B4C4680023A4460A4630BC152160472B
:106F300030B4C4681346A4460A4630BC17216047E3
:106F4000F8B50C4605462178641C182924D00EDCBF
:106F5000152919D0162917D0172923D12078694669
:106F600008706A4601212846FFF7E2FF0AE0192966
:106F700012D0FE2916D122786846027029212846AF
:106F800000F066F9641CDEE7227868460270EE685D
:106F900000232846B047F5E70023EE681A46284646
:106FA000B047D0E7F8BD30B4C4680023A44630BC75
:106FB0001A46182160470000FFB514460A462B4FB9
:106FC0000546143A81B0002638781300FDF741FADF
:106FD000063404171C42454B002802D02846FFF710
:106FE0003FFF2846FFF74BFF00212846FFF740FFF1
:106FF00021462846FFF73CFF012038702BE0214650
:107000002846FFF735FF26E0002802D02846FFF784
:1070100027FF049F06E01821284600F01FF9183CBE
:10702000E4B21837182C3A46F5D82146284600F025
:1070300015F90E4806700EE0284620300279FF2A26
:1070400001D1782202712E6922462846049BB0475E
:1070500005B0F0BD3E700120FAE70028FAD02846BE
:10706000FFF7FEFEF6E70020F2E70000290000200F
:1070700070B50023456904461A462821A847002315
:10708000E5681A4614212046A84701224B212046D4
:1070900000F0DEF8206829210279204600F0D8F8B7
:1070A00000224B21204600F0D3F8206829210279E4
:1070B000204600F0CDF801224B21204600F0C8F810
:1070C000206829214279204600F0C2F870BD016095
:1070D000897C20308170704770B50C46054600F001
:1070E00019F8002811D1092C0AD00A2C00D070BD43
:1070F0002846FFF7BDFF06492846FFF721FF04E0B9
:1071000003492846CC31FFF7E2FF012070BD0000A3
:10711000B47B0008F8B51F46144605460B2909D074
:107120002E4620360D290ED00E291DD00F2926D02F
:107130000020F8BD002A03D02649FFF701FF47E0F1
:107140002449491FF9E7002A07D022490C31FFF7EB
:10715000F7FE2868C07CB0703AE01E49491DFFF771
:10716000EFFE2868807CF6E7FFF71DFF81212846A7
:10717000FFF7D6FE21462846FFF7CAFE25E0FFF7B7
:1071800012FF7879B178C0000818C6B240212846AD
:10719000FFF7C6FE310928461031FFF7C1FE31075F
:1071A000090F2846FFF7B4FEB979B02001432846FD
:1071B000FFF7AEFE38793A68C006010E2846FFF7A1
:1071C000B7FE641E2406240EF4D12846FFF798FE6D
:1071D0000120F8BDA17B00080020704710B54C29A4
:1071E00030D008DC29291ED02A2913D02B290FD012
:1071F0002D2927D11BE04D2924D0044620345029C5
:1072000019D00920C006542918D055291AD11BE0DD
:1072100000BF17E00020FF21413100BF401C80B2B9
:107220008842FAD30EE00120FAF7B6F90AE0052009
:10723000FDF738FF06E00121044800E01021FAF7CD
:1072400009FBE071012010BD2021F8E7001400487F
:1072500030B444690023A44630BC6047F8B51546F5
:107260000E460446FFF70BFE40212046FFF700FEC6
:1072700027692B46324617212046B8472046FFF79C
:10728000EFFDF8BD002120308171704710B5024636
:10729000002915D00A2913D01046203083791D4CBF
:1072A000002B10D05B1EDBB28371108C8906800529
:1072B000000C890E08431084002B00D0204610BD1E
:1072C0001448401C10BDFC2904D305238371C80752
:1072D000C00F1AE0F82904D3042383718807800FB4
:1072E00013E0F02904D3032383714807400F0CE017
:1072F000E02904D3022383710807000F05E0C029A9
:1073000005D301238371C806C00E1084D6E7084652
:1073100010BD0000FEFF00000000C84100000C424C
:107320000000344200005C420000824200009642AD
:107330000000AA420000BE420000D2420000E64225
:107340000000FA42000007430000114300001B4305
:107350000000254300002F43000039430000434351
:1073600000004D43000057430000000000000000F3
:1073700001020304060708090000000001020304DB
:10738000090003020505040506101000FE0EFE0E9E
:10739000FE00000000004A002310A28391F43B4944
:1073A000E7A4932A51920D49294913254AB22992FB
:1073B000869CA473D239E9A4A41F200600A047012B
:1073C0002108413144714804220885284691B905B5
:1073D000230F462544D5D3302451CB30443D010002
:1073E000000004FFFF524D2B0FA28397033910E7D3
:1073F000401A0EDF69831A6651318B8A8354CCA2FE
:1074000062161507A998A5619686492D09A334032C
:107410005B9A260FA2839D5372647850725447730F
:10742000E270D0A19C9063752C1BD62CC7EA501239
:10743000E548361C74025F53200CA6835D2C656101
:107440001665615447D2E11DCCC11C4C86830EE603
:10745000600E0E0F39188BBE28EFA183150E7256E1
:10746000CEEA581D4A8721C9D16818D22C4CB37274
:1074700018C54994E4809823619263661D1000004A
:107480005F00030304040305050E0F00FD0BFD0B55
:10749000FD01B203A205262005008C142109B28546
:1074A00014074B8C00220935C51712CA280223176E
:1074B000A9847912A14428111D4212A144740849DB
:1074C0008412A144062417E77478C18A24428950A3
:1074D0006244EA304289502292623806251BBC84FD
:1074E0003DC4905E84A4384C0E92C3E2300935222C
:1074F000924944B21805002613A9855B538950228E
:107500005D925494463291885411270732C5141560
:1075100000280DE46D55129144A4DF443201290E78
:10752000E46C1532914CA45F441211002A0945BC49
:1075300056A1CA44012B0B788C7962B5434CAC063A
:107540002C08337C34120A002D0613A414032E06D3
:10755000228514042F0FB4847449A25848140B894F
:10756000623100300DB7845833891ABF49D44600C0
:107570003108B4855826FD03320DB7843815194DEE
:107580002A1CEAF5003310B7843815194DAA449621
:10759000D268920A003412B884B8D2214D22529196
:1075A0004964924354AC023510B7843816A9506A26
:1075B0009D4A6924110900360FB7845824151155C6
:1075C000B244E326A900370FB7841857A1542815F1
:1075D0004A85524500380EB784381519374945C6D3
:1075E0004D5201390EB7843815196F122B8D242294
:1075F000013A088286157408013B0A937D35EA60DA
:107600000905003C09569578939174013D08379D12
:107610001977C0013E0A569518D3A96832033F0E68
:10762000B7853915194D2AD42A87AA01401DCD7C6A
:107630009EE5D9EA4825A224115144228A1A4549D7
:10764000229ACCE450991C50054117BA849A72884A
:107650001C400E454542914C283A84841231590011
:107660004211B8851A1759914D629249846C870965
:10767000004317B9857B25CA443A07C80172801CAC
:1076800020874823945905004410B9851B36D944F6
:107690002891F251229BD800450CB7851907A9D62D
:1076A0008354EB01460CB7851907A9568B54570034
:1076B0004715B9857B25CA443A07C801322B5522A4
:1076C0009450669400480BB8851A421E0F451E055B
:1076D0004907B285141F024A0CB784B8FA4AA35569
:1076E0002615004B15B9851A42894CA4261152A9BA
:1076F00012A148A6249448054C09B7851852FDEB01
:10770000014D19BB851D72001D50B5DE2CB1082539
:1077100016A1A8902221D28816134E13B9851BD228
:10772000629112A388482192841621B60A4F11BA99
:10773000857CC4D1482811F32C118A166900500D9C
:10774000B8851A175991ED3011EB0C5111BA857C9F
:10775000C4D1482811F326511B2D52045217B98564
:107760001B27D94428114A64A2936C22940825420D
:10777000895400530FB8853A9651B1CC3C265646F1
:107780002500540AB88418879858FF06550CB98507
:107790001B52FE55229395005616BA841A62B244C3
:1077A00028128AD6444291944C07C8214200571DA2
:1077B000BE841E4221514854119194929492544493
:1077C0001259442409AE0AC54219005813B9841944
:1077D00052AA44A6221D4F25322599444A1559170D
:1077E000BA841A628950249489842229990E90437C
:1077F000E4103944085A0EB8841987B05475AA3A6F
:10780000553E045B09E46D1526FD4F045C0CB48401
:1078100014B1982C4D96264B5D09E46C1524FD4F50
:10782000065E0A56B55832528A88245F07186C18CB
:107830008700600723CD1522016110878538245504
:10784000514524114924A38900620EB78519522D90
:10785000A2891AB78A2600630D868558230989A84C
:1078600024519A00640EB785B99A242A356E12C93C
:107870004822650E8685381411E930144E24140010
:10788000660CB5845413998824D327006712B76D0A
:10789000599388A4C64D221949A4A4490500680B30
:1078A000B78519522D2B35BE096909B28514A4C3B9
:1078B00041006A0AE36C348A12FD72016B0EB685D0
:1078C00018424D14098924D189246C07B285141FEC
:1078D000026D138A851C12C91692882422894822B7
:1078E0009288A4006E0A87851992951ADF046F0D9D
:1078F00087855933891A3789DA0800700FB76D19EF
:1079000012D1448D5B4593541500710EB76D591219
:10791000951A37896424916A720A85851692834C78
:107920006F00730D86853814519138AC4828007467
:107930000DA58435325145A697900400750A8785B8
:107940001932BE555604760F88841842A244A42DDD
:1079500014A48A650077148A841A2211494452D1EA
:10796000245113094542910800780E878417329AF2
:10797000446D3893A8D1047911B86C1842A244A47C
:107980002D14A48A55A543007A0B8684164699A225
:107990004CD1007B0CE56C7622992645351D057C83
:1079A00006E16E140F7D0DE56D1642994625359D55
:1079B00064007E09379D39A3494D0200000004FF91
:1079C000FF0000120004040505030506111F00FA5C
:1079D00019F919FA0000000001B020060030A600D5
:1079E0002A186AB5B7245054102121468868818826
:1079F000941924D3040A02002B101016CE46989E28
:107A00003DF80131C2F40C002C0E6559A5F0408DF3
:107A10002423260904002D07A9F4AEF0032E08A59F
:107A200018A6F040012F1A2813A62657C2A41A251B
:107A30004CAA51C2A41226D528615209930C0030D9
:107A40001D0F17CA742ED59A26654A94D22A1DFE98
:107A50002E955625CA1469B32ADD2100310FEA1A82
:107A6000CA378C5499070F8ED1FF1F321E1017CAC8
:107A7000746E511B17664C945A962E5D51A3454D5A
:107A80005A78A1499B3EF8010133241017CA746E3D
:107A9000519B26A54A102B418E0439B2450B9E34CA
:107AA0008AD6DA7499AD2AE2A4D1BA5300342610EA
:107AB00017CA58B6A8C90BD1912037841811626330
:107AC00048912144D12832A4C80C23F3E0072409AB
:107AD000D30D00351E0F17CAC2863763E9A2149B67
:107AE000264D0819AD962CB2648A8A3461A4CE144E
:107AF0000036240F17CA654E119B16854A10434B5A
:107B0000492112485CB830B32A1DEE52952853A47F
:107B1000CDAA84A500371A1017CAF00764C996A524
:107B2000B62CD9B264CB92AD966C4DCBD610003842
:107B30002A1113CA757055A33255152147841C119B
:107B400072444A95A96AD9AA36A54A944B8965BA5E
:107B500012668C386AB5F0140039240F17CA5530F4
:107B6000D59A26654A944A87BB546B4C7882821416
:107B700011B26491912854840DAB84A5003A0B2571
:107B80001EAEF0403D540F1400000004FFFF000043
:107B9000456C00084D6C0008D96600081815AF192F
:107BA000FF1815AE19FF1815A115C819FF1815A053
:107BB00015C019FF1815AE15D5168015A8163F1556
:107BC000D316001540158D16141520160015A11595
:107BD000C815DA1612158116CF15D916F115DB1650
:107BE00040152E15A415A619FF1815AE15D516802B
:107BF00015A8163F15D316001540158D161415201F
:107C0000160015A115C815DA1612158116EF15D92B
:107C100016A115DB1600152E15A415A619FF1815AB
:107C2000AE15D5168015A8163F15D31600154015AC
:107C30008D16141520160015A115C815DA16021593
:107C40008116CF15D916F115DB1640152E15A41582
:107C5000A619FF1815AE15A415D5165015A8163F70
:107C600015D31600154015AD168B15D9162215DB48
:107C700016351532158116FF15A615DA161219FFDD
:107C80000001140A6464323200127A00000428965B
:107C900010080000800040000001140A64643232C1
:107CA00000093D00030428961008020280004000ED
:107CB000496E566F6C746167650A496E43757272DE
:107CC000656E740A4D617854656D700A4245455081
:107CD0000A5247425F4C45440A554152540A2D52BC
:107CE0006573746F72652D466163746F72792D0AC6
:107CF0003E457869743C0000187D000800000020B3
:107D000030000000B0440008487D0008300000202A
:107D1000B80D0000C0440008000000000000000092
:107D2000000040060000000000000000000000000D
:107D300001000000040000000000000000127A00B2
:087D400000000000000000003B
:04000005080000B13E
:00000001FF
